{
	"contracts/placePixel.sol": {
		"placePixel": {
			"abi": [
				{
					"inputs": [
						{
							"internalType": "uint256",
							"name": "_costPerPixel",
							"type": "uint256"
						},
						{
							"internalType": "uint256",
							"name": "_challengePeriod",
							"type": "uint256"
						}
					],
					"stateMutability": "nonpayable",
					"type": "constructor"
				},
				{
					"anonymous": false,
					"inputs": [
						{
							"indexed": false,
							"internalType": "uint64",
							"name": "_n",
							"type": "uint64"
						},
						{
							"indexed": false,
							"internalType": "bytes",
							"name": "_pixels",
							"type": "bytes"
						}
					],
					"name": "PixelsChange",
					"type": "event"
				},
				{
					"inputs": [],
					"name": "challengePeriod",
					"outputs": [
						{
							"internalType": "uint256",
							"name": "",
							"type": "uint256"
						}
					],
					"stateMutability": "view",
					"type": "function"
				},
				{
					"inputs": [
						{
							"internalType": "bytes",
							"name": "_pixels",
							"type": "bytes"
						}
					],
					"name": "changePixels",
					"outputs": [],
					"stateMutability": "nonpayable",
					"type": "function"
				},
				{
					"inputs": [
						{
							"internalType": "bytes",
							"name": "data",
							"type": "bytes"
						}
					],
					"name": "claim",
					"outputs": [],
					"stateMutability": "nonpayable",
					"type": "function"
				},
				{
					"inputs": [],
					"name": "costPerPixel",
					"outputs": [
						{
							"internalType": "uint256",
							"name": "",
							"type": "uint256"
						}
					],
					"stateMutability": "view",
					"type": "function"
				},
				{
					"inputs": [
						{
							"internalType": "address",
							"name": "",
							"type": "address"
						}
					],
					"name": "deposit",
					"outputs": [
						{
							"internalType": "uint256",
							"name": "",
							"type": "uint256"
						}
					],
					"stateMutability": "view",
					"type": "function"
				},
				{
					"inputs": [],
					"name": "length",
					"outputs": [
						{
							"internalType": "uint256",
							"name": "",
							"type": "uint256"
						}
					],
					"stateMutability": "view",
					"type": "function"
				},
				{
					"inputs": [
						{
							"internalType": "uint16",
							"name": "x",
							"type": "uint16"
						},
						{
							"internalType": "uint16",
							"name": "y",
							"type": "uint16"
						},
						{
							"internalType": "uint16",
							"name": "xx",
							"type": "uint16"
						},
						{
							"internalType": "uint16",
							"name": "yy",
							"type": "uint16"
						}
					],
					"name": "lock",
					"outputs": [],
					"stateMutability": "payable",
					"type": "function"
				},
				{
					"inputs": [],
					"name": "withdrawDeposit",
					"outputs": [],
					"stateMutability": "nonpayable",
					"type": "function"
				}
			],
			"devdoc": {
				"kind": "dev",
				"methods": {},
				"version": 1
			},
			"evm": {
				"assembly": "    /* \"contracts/placePixel.sol\":175:1094  contract placePixel {... */\n  mstore(0x40, 0x80)\n    /* \"contracts/placePixel.sol\":396:546  constructor(uint256 _costPerPixel, uint256 _challengePeriod) {... */\n  callvalue\n  dup1\n  iszero\n  tag_1\n  jumpi\n  0x00\n  dup1\n  revert\ntag_1:\n  pop\n  mload(0x40)\n  sub(codesize, bytecodeSize)\n  dup1\n  bytecodeSize\n  dup4\n  codecopy\n  dup2\n  dup2\n  add\n  0x40\n  mstore\n  0x40\n  dup2\n  lt\n  iszero\n  tag_2\n  jumpi\n  0x00\n  dup1\n  revert\ntag_2:\n  pop\n  dup1\n  mload\n  0x20\n  swap1\n  swap2\n  add\n  mload\n    /* \"contracts/placePixel.sol\":467:479  costPerPixel */\n  0x00\n    /* \"contracts/placePixel.sol\":467:495  costPerPixel = _costPerPixel */\n  swap2\n  swap1\n  swap2\n  sstore\n    /* \"contracts/placePixel.sol\":505:520  challengePeriod */\n  0x01\n    /* \"contracts/placePixel.sol\":505:539  challengePeriod = _challengePeriod */\n  sstore\n    /* \"contracts/placePixel.sol\":175:1094  contract placePixel {... */\n  dataSize(sub_0)\n  dup1\n  dataOffset(sub_0)\n  0x00\n  codecopy\n  0x00\n  return\nstop\n\nsub_0: assembly {\n        /* \"contracts/placePixel.sol\":175:1094  contract placePixel {... */\n      mstore(0x40, 0x80)\n      jumpi(tag_1, lt(calldatasize, 0x04))\n      shr(0xe0, calldataload(0x00))\n      dup1\n      0xb3d7a2d2\n      gt\n      tag_10\n      jumpi\n      dup1\n      0xb3d7a2d2\n      eq\n      tag_6\n      jumpi\n      dup1\n      0xc63ff8dd\n      eq\n      tag_7\n      jumpi\n      dup1\n      0xf340fa01\n      eq\n      tag_8\n      jumpi\n      dup1\n      0xf3f480d9\n      eq\n      tag_9\n      jumpi\n      jump(tag_1)\n    tag_10:\n      dup1\n      0x117df088\n      eq\n      tag_2\n      jumpi\n      dup1\n      0x1f7b6d32\n      eq\n      tag_3\n      jumpi\n      dup1\n      0x585dcc0a\n      eq\n      tag_4\n      jumpi\n      dup1\n      0xb015852e\n      eq\n      tag_5\n      jumpi\n    tag_1:\n      0x00\n      dup1\n      revert\n        /* \"contracts/placePixel.sol\":1049:1092  function withdrawDeposit() external{... */\n    tag_2:\n      callvalue\n      dup1\n      iszero\n      tag_11\n      jumpi\n      0x00\n      dup1\n      revert\n    tag_11:\n      pop\n      tag_12\n      tag_13\n      jump\t// in\n    tag_12:\n      stop\n        /* \"contracts/placePixel.sol\":321:342  uint256 public length */\n    tag_3:\n      callvalue\n      dup1\n      iszero\n      tag_14\n      jumpi\n      0x00\n      dup1\n      revert\n    tag_14:\n      pop\n      tag_15\n      tag_16\n      jump\t// in\n    tag_15:\n      0x40\n      dup1\n      mload\n      swap2\n      dup3\n      mstore\n      mload\n      swap1\n      dup2\n      swap1\n      sub\n      0x20\n      add\n      swap1\n      return\n        /* \"contracts/placePixel.sol\":252:279  uint256 public costPerPixel */\n    tag_4:\n      callvalue\n      dup1\n      iszero\n      tag_17\n      jumpi\n      0x00\n      dup1\n      revert\n    tag_17:\n      pop\n      tag_15\n      tag_19\n      jump\t// in\n        /* \"contracts/placePixel.sol\":753:1043  function lock(uint16 x, uint16 y, uint16 xx, uint16 yy) external payable{... */\n    tag_5:\n      tag_12\n      0x04\n      dup1\n      calldatasize\n      sub\n      0x80\n      dup2\n      lt\n      iszero\n      tag_21\n      jumpi\n      0x00\n      dup1\n      revert\n    tag_21:\n      pop\n      0xffff\n      dup2\n      calldataload\n      dup2\n      and\n      swap2\n      0x20\n      dup2\n      add\n      calldataload\n      dup3\n      and\n      swap2\n      0x40\n      dup3\n      add\n      calldataload\n      dup2\n      and\n      swap2\n      0x60\n      add\n      calldataload\n      and\n      tag_22\n      jump\t// in\n        /* \"contracts/placePixel.sol\":610:747  function changePixels(bytes calldata _pixels) external{... */\n    tag_6:\n      callvalue\n      dup1\n      iszero\n      tag_23\n      jumpi\n      0x00\n      dup1\n      revert\n    tag_23:\n      pop\n      tag_12\n      0x04\n      dup1\n      calldatasize\n      sub\n      0x20\n      dup2\n      lt\n      iszero\n      tag_25\n      jumpi\n      0x00\n      dup1\n      revert\n    tag_25:\n      dup2\n      add\n      swap1\n      0x20\n      dup2\n      add\n      dup2\n      calldataload\n      0x0100000000\n      dup2\n      gt\n      iszero\n      tag_26\n      jumpi\n      0x00\n      dup1\n      revert\n    tag_26:\n      dup3\n      add\n      dup4\n      0x20\n      dup3\n      add\n      gt\n      iszero\n      tag_27\n      jumpi\n      0x00\n      dup1\n      revert\n    tag_27:\n      dup1\n      calldataload\n      swap1\n      0x20\n      add\n      swap2\n      dup5\n      0x01\n      dup4\n      mul\n      dup5\n      add\n      gt\n      0x0100000000\n      dup4\n      gt\n      or\n      iszero\n      tag_28\n      jumpi\n      0x00\n      dup1\n      revert\n    tag_28:\n      pop\n      swap1\n      swap3\n      pop\n      swap1\n      pop\n      tag_29\n      jump\t// in\n        /* \"contracts/placePixel.sol\":552:604  function claim(bytes calldata data) external {... */\n    tag_7:\n      callvalue\n      dup1\n      iszero\n      tag_30\n      jumpi\n      0x00\n      dup1\n      revert\n    tag_30:\n      pop\n      tag_12\n      0x04\n      dup1\n      calldatasize\n      sub\n      0x20\n      dup2\n      lt\n      iszero\n      tag_32\n      jumpi\n      0x00\n      dup1\n      revert\n    tag_32:\n      dup2\n      add\n      swap1\n      0x20\n      dup2\n      add\n      dup2\n      calldataload\n      0x0100000000\n      dup2\n      gt\n      iszero\n      tag_33\n      jumpi\n      0x00\n      dup1\n      revert\n    tag_33:\n      dup3\n      add\n      dup4\n      0x20\n      dup3\n      add\n      gt\n      iszero\n      tag_34\n      jumpi\n      0x00\n      dup1\n      revert\n    tag_34:\n      dup1\n      calldataload\n      swap1\n      0x20\n      add\n      swap2\n      dup5\n      0x01\n      dup4\n      mul\n      dup5\n      add\n      gt\n      0x0100000000\n      dup4\n      gt\n      or\n      iszero\n      tag_35\n      jumpi\n      0x00\n      dup1\n      revert\n    tag_35:\n      pop\n      swap1\n      swap3\n      pop\n      swap1\n      pop\n      tag_36\n      jump\t// in\n        /* \"contracts/placePixel.sol\":348:389  mapping (address=>uint256) public deposit */\n    tag_8:\n      callvalue\n      dup1\n      iszero\n      tag_37\n      jumpi\n      0x00\n      dup1\n      revert\n    tag_37:\n      pop\n      tag_15\n      0x04\n      dup1\n      calldatasize\n      sub\n      0x20\n      dup2\n      lt\n      iszero\n      tag_39\n      jumpi\n      0x00\n      dup1\n      revert\n    tag_39:\n      pop\n      calldataload\n      sub(shl(0xa0, 0x01), 0x01)\n      and\n      tag_40\n      jump\t// in\n        /* \"contracts/placePixel.sol\":285:315  uint256 public challengePeriod */\n    tag_9:\n      callvalue\n      dup1\n      iszero\n      tag_41\n      jumpi\n      0x00\n      dup1\n      revert\n    tag_41:\n      pop\n      tag_15\n      tag_43\n      jump\t// in\n        /* \"contracts/placePixel.sol\":1049:1092  function withdrawDeposit() external{... */\n    tag_13:\n      jump\t// out\n        /* \"contracts/placePixel.sol\":321:342  uint256 public length */\n    tag_16:\n      sload(0x02)\n      dup2\n      jump\t// out\n        /* \"contracts/placePixel.sol\":252:279  uint256 public costPerPixel */\n    tag_19:\n      sload(0x00)\n      dup2\n      jump\t// out\n        /* \"contracts/placePixel.sol\":753:1043  function lock(uint16 x, uint16 y, uint16 xx, uint16 yy) external payable{... */\n    tag_22:\n        /* \"contracts/placePixel.sol\":849:850  x */\n      dup4\n        /* \"contracts/placePixel.sol\":843:850  xx >= x */\n      0xffff\n      and\n        /* \"contracts/placePixel.sol\":843:845  xx */\n      dup3\n        /* \"contracts/placePixel.sol\":843:850  xx >= x */\n      0xffff\n      and\n      lt\n      iszero\n        /* \"contracts/placePixel.sol\":835:867  require(xx >= x, \"Invald area.\") */\n      tag_46\n      jumpi\n      0x40\n      dup1\n      mload\n      shl(0xe5, 0x461bcd)\n      dup2\n      mstore\n      0x20\n      0x04\n      dup3\n      add\n      mstore\n      0x0c\n      0x24\n      dup3\n      add\n      mstore\n      shl(0xa1, 0x24b73b30b6321030b932b097)\n      0x44\n      dup3\n      add\n      mstore\n      swap1\n      mload\n      swap1\n      dup2\n      swap1\n      sub\n      0x64\n      add\n      swap1\n      revert\n    tag_46:\n        /* \"contracts/placePixel.sol\":891:892  y */\n      dup3\n        /* \"contracts/placePixel.sol\":885:892  yy >= y */\n      0xffff\n      and\n        /* \"contracts/placePixel.sol\":885:887  yy */\n      dup2\n        /* \"contracts/placePixel.sol\":885:892  yy >= y */\n      0xffff\n      and\n      lt\n      iszero\n        /* \"contracts/placePixel.sol\":877:909  require(yy >= y, \"Invald area.\") */\n      tag_47\n      jumpi\n      0x40\n      dup1\n      mload\n      shl(0xe5, 0x461bcd)\n      dup2\n      mstore\n      0x20\n      0x04\n      dup3\n      add\n      mstore\n      0x0c\n      0x24\n      dup3\n      add\n      mstore\n      shl(0xa1, 0x24b73b30b6321030b932b097)\n      0x44\n      dup3\n      add\n      mstore\n      swap1\n      mload\n      swap1\n      dup2\n      swap1\n      sub\n      0x64\n      add\n      swap1\n      revert\n    tag_47:\n        /* \"contracts/placePixel.sol\":957:969  costPerPixel */\n      sload(0x00)\n        /* \"contracts/placePixel.sol\":952:953  y */\n      dup4\n        /* \"contracts/placePixel.sol\":949:951  yy */\n      dup3\n        /* \"contracts/placePixel.sol\":949:953  yy-y */\n      sub\n        /* \"contracts/placePixel.sol\":954:955  1 */\n      0x01\n        /* \"contracts/placePixel.sol\":949:955  yy-y+1 */\n      add\n        /* \"contracts/placePixel.sol\":943:944  x */\n      dup6\n        /* \"contracts/placePixel.sol\":940:942  xx */\n      dup5\n        /* \"contracts/placePixel.sol\":940:944  xx-x */\n      sub\n        /* \"contracts/placePixel.sol\":945:946  1 */\n      0x01\n        /* \"contracts/placePixel.sol\":940:946  xx-x+1 */\n      add\n        /* \"contracts/placePixel.sol\":939:956  (xx-x+1)*(yy-y+1) */\n      mul\n        /* \"contracts/placePixel.sol\":939:969  (xx-x+1)*(yy-y+1)*costPerPixel */\n      0xffff\n      and\n      mul\n        /* \"contracts/placePixel.sol\":927:936  msg.value */\n      callvalue\n        /* \"contracts/placePixel.sol\":927:969  msg.value > (xx-x+1)*(yy-y+1)*costPerPixel */\n      gt\n        /* \"contracts/placePixel.sol\":919:995  require(msg.value > (xx-x+1)*(yy-y+1)*costPerPixel, \"Insufficient deposit.\") */\n      tag_48\n      jumpi\n      0x40\n      dup1\n      mload\n      shl(0xe5, 0x461bcd)\n      dup2\n      mstore\n      0x20\n      0x04\n      dup3\n      add\n      mstore\n      0x15\n      0x24\n      dup3\n      add\n      mstore\n      shl(0x59, 0x24b739bab33334b1b4b2b73a103232b837b9b4ba17)\n      0x44\n      dup3\n      add\n      mstore\n      swap1\n      mload\n      swap1\n      dup2\n      swap1\n      sub\n      0x64\n      add\n      swap1\n      revert\n    tag_48:\n      pop\n      pop\n        /* \"contracts/placePixel.sol\":1013:1023  msg.sender */\n      caller\n        /* \"contracts/placePixel.sol\":1005:1024  deposit[msg.sender] */\n      0x00\n      swap1\n      dup2\n      mstore\n        /* \"contracts/placePixel.sol\":1005:1012  deposit */\n      0x03\n        /* \"contracts/placePixel.sol\":1005:1024  deposit[msg.sender] */\n      0x20\n      mstore\n      0x40\n      swap1\n      keccak256\n        /* \"contracts/placePixel.sol\":1027:1036  msg.value */\n      callvalue\n        /* \"contracts/placePixel.sol\":1005:1036  deposit[msg.sender] = msg.value */\n      swap1\n      sstore\n      pop\n      pop\n        /* \"contracts/placePixel.sol\":753:1043  function lock(uint16 x, uint16 y, uint16 xx, uint16 yy) external payable{... */\n      jump\t// out\n        /* \"contracts/placePixel.sol\":610:747  function changePixels(bytes calldata _pixels) external{... */\n    tag_29:\n        /* \"contracts/placePixel.sol\":716:722  length */\n      0x02\n        /* \"contracts/placePixel.sol\":716:739  length = _pixels.length */\n      sstore\n      pop\n        /* \"contracts/placePixel.sol\":610:747  function changePixels(bytes calldata _pixels) external{... */\n      jump\t// out\n        /* \"contracts/placePixel.sol\":552:604  function claim(bytes calldata data) external {... */\n    tag_36:\n      pop\n      pop\n      jump\t// out\n        /* \"contracts/placePixel.sol\":348:389  mapping (address=>uint256) public deposit */\n    tag_40:\n      mstore(0x20, 0x03)\n      0x00\n      swap1\n      dup2\n      mstore\n      0x40\n      swap1\n      keccak256\n      sload\n      dup2\n      jump\t// out\n        /* \"contracts/placePixel.sol\":285:315  uint256 public challengePeriod */\n    tag_43:\n      sload(0x01)\n      dup2\n      jump\t// out\n\n    auxdata: 0xa2646970667358221220f8d879391fcd69b8328e22f28e72d5ce67b2904f2f25f70843e206166562209964736f6c63430007060033\n}\n",
				"bytecode": {
					"linkReferences": {},
					"object": "608060405234801561001057600080fd5b506040516104183803806104188339818101604052604081101561003357600080fd5b5080516020909101516000919091556001556103c4806100546000396000f3fe60806040526004361061007b5760003560e01c8063b3d7a2d21161004e578063b3d7a2d21461010c578063c63ff8dd14610189578063f340fa0114610206578063f3f480d9146102395761007b565b8063117df088146100805780631f7b6d3214610097578063585dcc0a146100be578063b015852e146100d3575b600080fd5b34801561008c57600080fd5b5061009561024e565b005b3480156100a357600080fd5b506100ac610250565b60408051918252519081900360200190f35b3480156100ca57600080fd5b506100ac610256565b610095600480360360808110156100e957600080fd5b5061ffff813581169160208101358216916040820135811691606001351661025c565b34801561011857600080fd5b506100956004803603602081101561012f57600080fd5b81019060208101813564010000000081111561014a57600080fd5b82018360208201111561015c57600080fd5b8035906020019184600183028401116401000000008311171561017e57600080fd5b50909250905061036c565b34801561019557600080fd5b50610095600480360360208110156101ac57600080fd5b8101906020810181356401000000008111156101c757600080fd5b8201836020820111156101d957600080fd5b803590602001918460018302840111640100000000831117156101fb57600080fd5b509092509050610372565b34801561021257600080fd5b506100ac6004803603602081101561022957600080fd5b50356001600160a01b0316610376565b34801561024557600080fd5b506100ac610388565b565b60025481565b60005481565b8361ffff168261ffff1610156102a8576040805162461bcd60e51b815260206004820152600c60248201526b24b73b30b6321030b932b09760a11b604482015290519081900360640190fd5b8261ffff168161ffff1610156102f4576040805162461bcd60e51b815260206004820152600c60248201526b24b73b30b6321030b932b09760a11b604482015290519081900360640190fd5b6000548382036001018584036001010261ffff16023411610354576040805162461bcd60e51b815260206004820152601560248201527424b739bab33334b1b4b2b73a103232b837b9b4ba1760591b604482015290519081900360640190fd5b50503360009081526003602052604090203490555050565b60025550565b5050565b60036020526000908152604090205481565b6001548156fea2646970667358221220f8d879391fcd69b8328e22f28e72d5ce67b2904f2f25f70843e206166562209964736f6c63430007060033",
					"opcodes": "PUSH1 0x80 PUSH1 0x40 MSTORE CALLVALUE DUP1 ISZERO PUSH2 0x10 JUMPI PUSH1 0x0 DUP1 REVERT JUMPDEST POP PUSH1 0x40 MLOAD PUSH2 0x418 CODESIZE SUB DUP1 PUSH2 0x418 DUP4 CODECOPY DUP2 DUP2 ADD PUSH1 0x40 MSTORE PUSH1 0x40 DUP2 LT ISZERO PUSH2 0x33 JUMPI PUSH1 0x0 DUP1 REVERT JUMPDEST POP DUP1 MLOAD PUSH1 0x20 SWAP1 SWAP2 ADD MLOAD PUSH1 0x0 SWAP2 SWAP1 SWAP2 SSTORE PUSH1 0x1 SSTORE PUSH2 0x3C4 DUP1 PUSH2 0x54 PUSH1 0x0 CODECOPY PUSH1 0x0 RETURN INVALID PUSH1 0x80 PUSH1 0x40 MSTORE PUSH1 0x4 CALLDATASIZE LT PUSH2 0x7B JUMPI PUSH1 0x0 CALLDATALOAD PUSH1 0xE0 SHR DUP1 PUSH4 0xB3D7A2D2 GT PUSH2 0x4E JUMPI DUP1 PUSH4 0xB3D7A2D2 EQ PUSH2 0x10C JUMPI DUP1 PUSH4 0xC63FF8DD EQ PUSH2 0x189 JUMPI DUP1 PUSH4 0xF340FA01 EQ PUSH2 0x206 JUMPI DUP1 PUSH4 0xF3F480D9 EQ PUSH2 0x239 JUMPI PUSH2 0x7B JUMP JUMPDEST DUP1 PUSH4 0x117DF088 EQ PUSH2 0x80 JUMPI DUP1 PUSH4 0x1F7B6D32 EQ PUSH2 0x97 JUMPI DUP1 PUSH4 0x585DCC0A EQ PUSH2 0xBE JUMPI DUP1 PUSH4 0xB015852E EQ PUSH2 0xD3 JUMPI JUMPDEST PUSH1 0x0 DUP1 REVERT JUMPDEST CALLVALUE DUP1 ISZERO PUSH2 0x8C JUMPI PUSH1 0x0 DUP1 REVERT JUMPDEST POP PUSH2 0x95 PUSH2 0x24E JUMP JUMPDEST STOP JUMPDEST CALLVALUE DUP1 ISZERO PUSH2 0xA3 JUMPI PUSH1 0x0 DUP1 REVERT JUMPDEST POP PUSH2 0xAC PUSH2 0x250 JUMP JUMPDEST PUSH1 0x40 DUP1 MLOAD SWAP2 DUP3 MSTORE MLOAD SWAP1 DUP2 SWAP1 SUB PUSH1 0x20 ADD SWAP1 RETURN JUMPDEST CALLVALUE DUP1 ISZERO PUSH2 0xCA JUMPI PUSH1 0x0 DUP1 REVERT JUMPDEST POP PUSH2 0xAC PUSH2 0x256 JUMP JUMPDEST PUSH2 0x95 PUSH1 0x4 DUP1 CALLDATASIZE SUB PUSH1 0x80 DUP2 LT ISZERO PUSH2 0xE9 JUMPI PUSH1 0x0 DUP1 REVERT JUMPDEST POP PUSH2 0xFFFF DUP2 CALLDATALOAD DUP2 AND SWAP2 PUSH1 0x20 DUP2 ADD CALLDATALOAD DUP3 AND SWAP2 PUSH1 0x40 DUP3 ADD CALLDATALOAD DUP2 AND SWAP2 PUSH1 0x60 ADD CALLDATALOAD AND PUSH2 0x25C JUMP JUMPDEST CALLVALUE DUP1 ISZERO PUSH2 0x118 JUMPI PUSH1 0x0 DUP1 REVERT JUMPDEST POP PUSH2 0x95 PUSH1 0x4 DUP1 CALLDATASIZE SUB PUSH1 0x20 DUP2 LT ISZERO PUSH2 0x12F JUMPI PUSH1 0x0 DUP1 REVERT JUMPDEST DUP2 ADD SWAP1 PUSH1 0x20 DUP2 ADD DUP2 CALLDATALOAD PUSH5 0x100000000 DUP2 GT ISZERO PUSH2 0x14A JUMPI PUSH1 0x0 DUP1 REVERT JUMPDEST DUP3 ADD DUP4 PUSH1 0x20 DUP3 ADD GT ISZERO PUSH2 0x15C JUMPI PUSH1 0x0 DUP1 REVERT JUMPDEST DUP1 CALLDATALOAD SWAP1 PUSH1 0x20 ADD SWAP2 DUP5 PUSH1 0x1 DUP4 MUL DUP5 ADD GT PUSH5 0x100000000 DUP4 GT OR ISZERO PUSH2 0x17E JUMPI PUSH1 0x0 DUP1 REVERT JUMPDEST POP SWAP1 SWAP3 POP SWAP1 POP PUSH2 0x36C JUMP JUMPDEST CALLVALUE DUP1 ISZERO PUSH2 0x195 JUMPI PUSH1 0x0 DUP1 REVERT JUMPDEST POP PUSH2 0x95 PUSH1 0x4 DUP1 CALLDATASIZE SUB PUSH1 0x20 DUP2 LT ISZERO PUSH2 0x1AC JUMPI PUSH1 0x0 DUP1 REVERT JUMPDEST DUP2 ADD SWAP1 PUSH1 0x20 DUP2 ADD DUP2 CALLDATALOAD PUSH5 0x100000000 DUP2 GT ISZERO PUSH2 0x1C7 JUMPI PUSH1 0x0 DUP1 REVERT JUMPDEST DUP3 ADD DUP4 PUSH1 0x20 DUP3 ADD GT ISZERO PUSH2 0x1D9 JUMPI PUSH1 0x0 DUP1 REVERT JUMPDEST DUP1 CALLDATALOAD SWAP1 PUSH1 0x20 ADD SWAP2 DUP5 PUSH1 0x1 DUP4 MUL DUP5 ADD GT PUSH5 0x100000000 DUP4 GT OR ISZERO PUSH2 0x1FB JUMPI PUSH1 0x0 DUP1 REVERT JUMPDEST POP SWAP1 SWAP3 POP SWAP1 POP PUSH2 0x372 JUMP JUMPDEST CALLVALUE DUP1 ISZERO PUSH2 0x212 JUMPI PUSH1 0x0 DUP1 REVERT JUMPDEST POP PUSH2 0xAC PUSH1 0x4 DUP1 CALLDATASIZE SUB PUSH1 0x20 DUP2 LT ISZERO PUSH2 0x229 JUMPI PUSH1 0x0 DUP1 REVERT JUMPDEST POP CALLDATALOAD PUSH1 0x1 PUSH1 0x1 PUSH1 0xA0 SHL SUB AND PUSH2 0x376 JUMP JUMPDEST CALLVALUE DUP1 ISZERO PUSH2 0x245 JUMPI PUSH1 0x0 DUP1 REVERT JUMPDEST POP PUSH2 0xAC PUSH2 0x388 JUMP JUMPDEST JUMP JUMPDEST PUSH1 0x2 SLOAD DUP2 JUMP JUMPDEST PUSH1 0x0 SLOAD DUP2 JUMP JUMPDEST DUP4 PUSH2 0xFFFF AND DUP3 PUSH2 0xFFFF AND LT ISZERO PUSH2 0x2A8 JUMPI PUSH1 0x40 DUP1 MLOAD PUSH3 0x461BCD PUSH1 0xE5 SHL DUP2 MSTORE PUSH1 0x20 PUSH1 0x4 DUP3 ADD MSTORE PUSH1 0xC PUSH1 0x24 DUP3 ADD MSTORE PUSH12 0x24B73B30B6321030B932B097 PUSH1 0xA1 SHL PUSH1 0x44 DUP3 ADD MSTORE SWAP1 MLOAD SWAP1 DUP2 SWAP1 SUB PUSH1 0x64 ADD SWAP1 REVERT JUMPDEST DUP3 PUSH2 0xFFFF AND DUP2 PUSH2 0xFFFF AND LT ISZERO PUSH2 0x2F4 JUMPI PUSH1 0x40 DUP1 MLOAD PUSH3 0x461BCD PUSH1 0xE5 SHL DUP2 MSTORE PUSH1 0x20 PUSH1 0x4 DUP3 ADD MSTORE PUSH1 0xC PUSH1 0x24 DUP3 ADD MSTORE PUSH12 0x24B73B30B6321030B932B097 PUSH1 0xA1 SHL PUSH1 0x44 DUP3 ADD MSTORE SWAP1 MLOAD SWAP1 DUP2 SWAP1 SUB PUSH1 0x64 ADD SWAP1 REVERT JUMPDEST PUSH1 0x0 SLOAD DUP4 DUP3 SUB PUSH1 0x1 ADD DUP6 DUP5 SUB PUSH1 0x1 ADD MUL PUSH2 0xFFFF AND MUL CALLVALUE GT PUSH2 0x354 JUMPI PUSH1 0x40 DUP1 MLOAD PUSH3 0x461BCD PUSH1 0xE5 SHL DUP2 MSTORE PUSH1 0x20 PUSH1 0x4 DUP3 ADD MSTORE PUSH1 0x15 PUSH1 0x24 DUP3 ADD MSTORE PUSH21 0x24B739BAB33334B1B4B2B73A103232B837B9B4BA17 PUSH1 0x59 SHL PUSH1 0x44 DUP3 ADD MSTORE SWAP1 MLOAD SWAP1 DUP2 SWAP1 SUB PUSH1 0x64 ADD SWAP1 REVERT JUMPDEST POP POP CALLER PUSH1 0x0 SWAP1 DUP2 MSTORE PUSH1 0x3 PUSH1 0x20 MSTORE PUSH1 0x40 SWAP1 KECCAK256 CALLVALUE SWAP1 SSTORE POP POP JUMP JUMPDEST PUSH1 0x2 SSTORE POP JUMP JUMPDEST POP POP JUMP JUMPDEST PUSH1 0x3 PUSH1 0x20 MSTORE PUSH1 0x0 SWAP1 DUP2 MSTORE PUSH1 0x40 SWAP1 KECCAK256 SLOAD DUP2 JUMP JUMPDEST PUSH1 0x1 SLOAD DUP2 JUMP INVALID LOG2 PUSH5 0x6970667358 0x22 SLT KECCAK256 0xF8 0xD8 PUSH26 0x391FCD69B8328E22F28E72D5CE67B2904F2F25F70843E2061665 PUSH3 0x209964 PUSH20 0x6F6C634300070600330000000000000000000000 "
				},
				"gasEstimates": {
					"creation": {
						"codeDepositCost": "192800",
						"executionCost": "infinite",
						"totalCost": "infinite"
					},
					"external": {
						"challengePeriod()": "1064",
						"changePixels(bytes)": "20359",
						"claim(bytes)": "380",
						"costPerPixel()": "1043",
						"deposit(address)": "1168",
						"length()": "1021",
						"lock(uint16,uint16,uint16,uint16)": "21326",
						"withdrawDeposit()": "145"
					}
				},
				"methodIdentifiers": {
					"challengePeriod()": "f3f480d9",
					"changePixels(bytes)": "b3d7a2d2",
					"claim(bytes)": "c63ff8dd",
					"costPerPixel()": "585dcc0a",
					"deposit(address)": "f340fa01",
					"length()": "1f7b6d32",
					"lock(uint16,uint16,uint16,uint16)": "b015852e",
					"withdrawDeposit()": "117df088"
				}
			},
			"storageLayout": {
				"storage": [
					{
						"astId": 70,
						"contract": "contracts/placePixel.sol:placePixel",
						"label": "costPerPixel",
						"offset": 0,
						"slot": "0",
						"type": "t_uint256"
					},
					{
						"astId": 72,
						"contract": "contracts/placePixel.sol:placePixel",
						"label": "challengePeriod",
						"offset": 0,
						"slot": "1",
						"type": "t_uint256"
					},
					{
						"astId": 74,
						"contract": "contracts/placePixel.sol:placePixel",
						"label": "length",
						"offset": 0,
						"slot": "2",
						"type": "t_uint256"
					},
					{
						"astId": 78,
						"contract": "contracts/placePixel.sol:placePixel",
						"label": "deposit",
						"offset": 0,
						"slot": "3",
						"type": "t_mapping(t_address,t_uint256)"
					}
				],
				"types": {
					"t_address": {
						"encoding": "inplace",
						"label": "address",
						"numberOfBytes": "20"
					},
					"t_mapping(t_address,t_uint256)": {
						"encoding": "mapping",
						"key": "t_address",
						"label": "mapping(address => uint256)",
						"numberOfBytes": "32",
						"value": "t_uint256"
					},
					"t_uint256": {
						"encoding": "inplace",
						"label": "uint256",
						"numberOfBytes": "32"
					}
				}
			},
			"userdoc": {
				"kind": "user",
				"methods": {},
				"version": 1
			}
		}
	}
}