{
	"contracts/placePixel.sol": {
		"placePixel": {
			"abi": [
				{
					"inputs": [],
					"stateMutability": "nonpayable",
					"type": "constructor"
				},
				{
					"anonymous": false,
					"inputs": [
						{
							"indexed": false,
							"internalType": "uint64",
							"name": "_n",
							"type": "uint64"
						},
						{
							"indexed": false,
							"internalType": "bytes",
							"name": "_pixels",
							"type": "bytes"
						}
					],
					"name": "PixelsChange",
					"type": "event"
				},
				{
					"inputs": [
						{
							"internalType": "uint64",
							"name": "_n",
							"type": "uint64"
						},
						{
							"internalType": "bytes",
							"name": "_pixels",
							"type": "bytes"
						}
					],
					"name": "changePixels",
					"outputs": [],
					"stateMutability": "nonpayable",
					"type": "function"
				},
				{
					"inputs": [
						{
							"internalType": "bytes",
							"name": "data",
							"type": "bytes"
						}
					],
					"name": "claim",
					"outputs": [],
					"stateMutability": "nonpayable",
					"type": "function"
				},
				{
					"inputs": [
						{
							"internalType": "bytes8",
							"name": "boundary",
							"type": "bytes8"
						}
					],
					"name": "lock",
					"outputs": [],
					"stateMutability": "nonpayable",
					"type": "function"
				}
			],
			"devdoc": {
				"kind": "dev",
				"methods": {},
				"version": 1
			},
			"evm": {
				"assembly": "    /* \"contracts/placePixel.sol\":175:514  contract placePixel {... */\n  mstore(0x40, 0x80)\n    /* \"contracts/placePixel.sol\":253:274  constructor() {... */\n  callvalue\n  dup1\n  iszero\n  tag_1\n  jumpi\n  0x00\n  dup1\n  revert\ntag_1:\n  pop\n    /* \"contracts/placePixel.sol\":175:514  contract placePixel {... */\n  dataSize(sub_0)\n  dup1\n  dataOffset(sub_0)\n  0x00\n  codecopy\n  0x00\n  return\nstop\n\nsub_0: assembly {\n        /* \"contracts/placePixel.sol\":175:514  contract placePixel {... */\n      mstore(0x40, 0x80)\n      callvalue\n      dup1\n      iszero\n      tag_1\n      jumpi\n      0x00\n      dup1\n      revert\n    tag_1:\n      pop\n      jumpi(tag_2, lt(calldatasize, 0x04))\n      shr(0xe0, calldataload(0x00))\n      dup1\n      0x08e90893\n      eq\n      tag_3\n      jumpi\n      dup1\n      0xc63ff8dd\n      eq\n      tag_4\n      jumpi\n      dup1\n      0xcdd8e3e5\n      eq\n      tag_5\n      jumpi\n    tag_2:\n      0x00\n      dup1\n      revert\n        /* \"contracts/placePixel.sol\":457:512  function lock(bytes8 boundary) external{... */\n    tag_3:\n      tag_6\n      0x04\n      dup1\n      calldatasize\n      sub\n      0x20\n      dup2\n      lt\n      iszero\n      tag_7\n      jumpi\n      0x00\n      dup1\n      revert\n    tag_7:\n      pop\n      calldataload\n      not(sub(shl(0xc0, 0x01), 0x01))\n      and\n      tag_8\n      jump\t// in\n    tag_6:\n      stop\n        /* \"contracts/placePixel.sol\":280:332  function claim(bytes calldata data) external {... */\n    tag_4:\n      tag_6\n      0x04\n      dup1\n      calldatasize\n      sub\n      0x20\n      dup2\n      lt\n      iszero\n      tag_10\n      jumpi\n      0x00\n      dup1\n      revert\n    tag_10:\n      dup2\n      add\n      swap1\n      0x20\n      dup2\n      add\n      dup2\n      calldataload\n      0x0100000000\n      dup2\n      gt\n      iszero\n      tag_11\n      jumpi\n      0x00\n      dup1\n      revert\n    tag_11:\n      dup3\n      add\n      dup4\n      0x20\n      dup3\n      add\n      gt\n      iszero\n      tag_12\n      jumpi\n      0x00\n      dup1\n      revert\n    tag_12:\n      dup1\n      calldataload\n      swap1\n      0x20\n      add\n      swap2\n      dup5\n      0x01\n      dup4\n      mul\n      dup5\n      add\n      gt\n      0x0100000000\n      dup4\n      gt\n      or\n      iszero\n      tag_13\n      jumpi\n      0x00\n      dup1\n      revert\n    tag_13:\n      pop\n      swap1\n      swap3\n      pop\n      swap1\n      pop\n      tag_14\n      jump\t// in\n        /* \"contracts/placePixel.sol\":338:451  function changePixels(uint64 _n, bytes calldata _pixels) external{... */\n    tag_5:\n      tag_6\n      0x04\n      dup1\n      calldatasize\n      sub\n      0x40\n      dup2\n      lt\n      iszero\n      tag_16\n      jumpi\n      0x00\n      dup1\n      revert\n    tag_16:\n      0xffffffffffffffff\n      dup3\n      calldataload\n      and\n      swap2\n      swap1\n      dup2\n      add\n      swap1\n      0x40\n      dup2\n      add\n      0x20\n      dup3\n      add\n      calldataload\n      0x0100000000\n      dup2\n      gt\n      iszero\n      tag_17\n      jumpi\n      0x00\n      dup1\n      revert\n    tag_17:\n      dup3\n      add\n      dup4\n      0x20\n      dup3\n      add\n      gt\n      iszero\n      tag_18\n      jumpi\n      0x00\n      dup1\n      revert\n    tag_18:\n      dup1\n      calldataload\n      swap1\n      0x20\n      add\n      swap2\n      dup5\n      0x01\n      dup4\n      mul\n      dup5\n      add\n      gt\n      0x0100000000\n      dup4\n      gt\n      or\n      iszero\n      tag_19\n      jumpi\n      0x00\n      dup1\n      revert\n    tag_19:\n      pop\n      swap1\n      swap3\n      pop\n      swap1\n      pop\n      tag_20\n      jump\t// in\n        /* \"contracts/placePixel.sol\":457:512  function lock(bytes8 boundary) external{... */\n    tag_8:\n      pop\n      jump\t// out\n        /* \"contracts/placePixel.sol\":280:332  function claim(bytes calldata data) external {... */\n    tag_14:\n      pop\n      pop\n      jump\t// out\n        /* \"contracts/placePixel.sol\":338:451  function changePixels(uint64 _n, bytes calldata _pixels) external{... */\n    tag_20:\n        /* \"contracts/placePixel.sol\":418:443  PixelsChange(_n, _pixels) */\n      0x9733cc983acbb5bc34f1beb2f9a6fcf17855246773099d1f1a8fd9a7b69c0312\n        /* \"contracts/placePixel.sol\":431:433  _n */\n      dup4\n        /* \"contracts/placePixel.sol\":435:442  _pixels */\n      dup4\n      dup4\n        /* \"contracts/placePixel.sol\":418:443  PixelsChange(_n, _pixels) */\n      mload(0x40)\n      dup1\n      dup5\n      0xffffffffffffffff\n      and\n      dup2\n      mstore\n      0x20\n      add\n      dup1\n      0x20\n      add\n      dup3\n      dup2\n      sub\n      dup3\n      mstore\n      dup5\n      dup5\n      dup3\n      dup2\n      dup2\n      mstore\n      0x20\n      add\n      swap3\n      pop\n      dup1\n      dup3\n      dup5\n      calldatacopy\n      0x00\n      dup4\n      dup3\n      add\n      mstore\n      mload(0x40)\n      0x1f\n      swap1\n      swap2\n      add\n      not(0x1f)\n      and\n      swap1\n      swap3\n      add\n      dup3\n      swap1\n      sub\n      swap7\n      pop\n      swap1\n      swap5\n      pop\n      pop\n      pop\n      pop\n      pop\n      log1\n        /* \"contracts/placePixel.sol\":338:451  function changePixels(uint64 _n, bytes calldata _pixels) external{... */\n      pop\n      pop\n      pop\n      jump\t// out\n\n    auxdata: 0xa2646970667358221220ad4038e1e43e2abec2b44ff2d7bef0d253deb02754008c5c632d35f8a5f4526f64736f6c63430007060033\n}\n",
				"bytecode": {
					"linkReferences": {},
					"object": "608060405234801561001057600080fd5b50610214806100206000396000f3fe608060405234801561001057600080fd5b50600436106100415760003560e01c806308e9089314610046578063c63ff8dd1461006f578063cdd8e3e5146100df575b600080fd5b61006d6004803603602081101561005c57600080fd5b50356001600160c01b031916610160565b005b61006d6004803603602081101561008557600080fd5b8101906020810181356401000000008111156100a057600080fd5b8201836020820111156100b257600080fd5b803590602001918460018302840111640100000000831117156100d457600080fd5b509092509050610163565b61006d600480360360408110156100f557600080fd5b67ffffffffffffffff823516919081019060408101602082013564010000000081111561012157600080fd5b82018360208201111561013357600080fd5b8035906020019184600183028401116401000000008311171561015557600080fd5b509092509050610167565b50565b5050565b7f9733cc983acbb5bc34f1beb2f9a6fcf17855246773099d1f1a8fd9a7b69c0312838383604051808467ffffffffffffffff168152602001806020018281038252848482818152602001925080828437600083820152604051601f909101601f1916909201829003965090945050505050a150505056fea2646970667358221220ad4038e1e43e2abec2b44ff2d7bef0d253deb02754008c5c632d35f8a5f4526f64736f6c63430007060033",
					"opcodes": "PUSH1 0x80 PUSH1 0x40 MSTORE CALLVALUE DUP1 ISZERO PUSH2 0x10 JUMPI PUSH1 0x0 DUP1 REVERT JUMPDEST POP PUSH2 0x214 DUP1 PUSH2 0x20 PUSH1 0x0 CODECOPY PUSH1 0x0 RETURN INVALID PUSH1 0x80 PUSH1 0x40 MSTORE CALLVALUE DUP1 ISZERO PUSH2 0x10 JUMPI PUSH1 0x0 DUP1 REVERT JUMPDEST POP PUSH1 0x4 CALLDATASIZE LT PUSH2 0x41 JUMPI PUSH1 0x0 CALLDATALOAD PUSH1 0xE0 SHR DUP1 PUSH4 0x8E90893 EQ PUSH2 0x46 JUMPI DUP1 PUSH4 0xC63FF8DD EQ PUSH2 0x6F JUMPI DUP1 PUSH4 0xCDD8E3E5 EQ PUSH2 0xDF JUMPI JUMPDEST PUSH1 0x0 DUP1 REVERT JUMPDEST PUSH2 0x6D PUSH1 0x4 DUP1 CALLDATASIZE SUB PUSH1 0x20 DUP2 LT ISZERO PUSH2 0x5C JUMPI PUSH1 0x0 DUP1 REVERT JUMPDEST POP CALLDATALOAD PUSH1 0x1 PUSH1 0x1 PUSH1 0xC0 SHL SUB NOT AND PUSH2 0x160 JUMP JUMPDEST STOP JUMPDEST PUSH2 0x6D PUSH1 0x4 DUP1 CALLDATASIZE SUB PUSH1 0x20 DUP2 LT ISZERO PUSH2 0x85 JUMPI PUSH1 0x0 DUP1 REVERT JUMPDEST DUP2 ADD SWAP1 PUSH1 0x20 DUP2 ADD DUP2 CALLDATALOAD PUSH5 0x100000000 DUP2 GT ISZERO PUSH2 0xA0 JUMPI PUSH1 0x0 DUP1 REVERT JUMPDEST DUP3 ADD DUP4 PUSH1 0x20 DUP3 ADD GT ISZERO PUSH2 0xB2 JUMPI PUSH1 0x0 DUP1 REVERT JUMPDEST DUP1 CALLDATALOAD SWAP1 PUSH1 0x20 ADD SWAP2 DUP5 PUSH1 0x1 DUP4 MUL DUP5 ADD GT PUSH5 0x100000000 DUP4 GT OR ISZERO PUSH2 0xD4 JUMPI PUSH1 0x0 DUP1 REVERT JUMPDEST POP SWAP1 SWAP3 POP SWAP1 POP PUSH2 0x163 JUMP JUMPDEST PUSH2 0x6D PUSH1 0x4 DUP1 CALLDATASIZE SUB PUSH1 0x40 DUP2 LT ISZERO PUSH2 0xF5 JUMPI PUSH1 0x0 DUP1 REVERT JUMPDEST PUSH8 0xFFFFFFFFFFFFFFFF DUP3 CALLDATALOAD AND SWAP2 SWAP1 DUP2 ADD SWAP1 PUSH1 0x40 DUP2 ADD PUSH1 0x20 DUP3 ADD CALLDATALOAD PUSH5 0x100000000 DUP2 GT ISZERO PUSH2 0x121 JUMPI PUSH1 0x0 DUP1 REVERT JUMPDEST DUP3 ADD DUP4 PUSH1 0x20 DUP3 ADD GT ISZERO PUSH2 0x133 JUMPI PUSH1 0x0 DUP1 REVERT JUMPDEST DUP1 CALLDATALOAD SWAP1 PUSH1 0x20 ADD SWAP2 DUP5 PUSH1 0x1 DUP4 MUL DUP5 ADD GT PUSH5 0x100000000 DUP4 GT OR ISZERO PUSH2 0x155 JUMPI PUSH1 0x0 DUP1 REVERT JUMPDEST POP SWAP1 SWAP3 POP SWAP1 POP PUSH2 0x167 JUMP JUMPDEST POP JUMP JUMPDEST POP POP JUMP JUMPDEST PUSH32 0x9733CC983ACBB5BC34F1BEB2F9A6FCF17855246773099D1F1A8FD9A7B69C0312 DUP4 DUP4 DUP4 PUSH1 0x40 MLOAD DUP1 DUP5 PUSH8 0xFFFFFFFFFFFFFFFF AND DUP2 MSTORE PUSH1 0x20 ADD DUP1 PUSH1 0x20 ADD DUP3 DUP2 SUB DUP3 MSTORE DUP5 DUP5 DUP3 DUP2 DUP2 MSTORE PUSH1 0x20 ADD SWAP3 POP DUP1 DUP3 DUP5 CALLDATACOPY PUSH1 0x0 DUP4 DUP3 ADD MSTORE PUSH1 0x40 MLOAD PUSH1 0x1F SWAP1 SWAP2 ADD PUSH1 0x1F NOT AND SWAP1 SWAP3 ADD DUP3 SWAP1 SUB SWAP7 POP SWAP1 SWAP5 POP POP POP POP POP LOG1 POP POP POP JUMP INVALID LOG2 PUSH5 0x6970667358 0x22 SLT KECCAK256 0xAD BLOCKHASH CODESIZE 0xE1 0xE4 RETURNDATACOPY 0x2A 0xBE 0xC2 0xB4 0x4F CALLCODE 0xD7 0xBE CREATE 0xD2 MSTORE8 0xDE 0xB0 0x27 SLOAD STOP DUP13 0x5C PUSH4 0x2D35F8A5 DELEGATECALL MSTORE PUSH16 0x64736F6C634300070600330000000000 "
				},
				"gasEstimates": {
					"creation": {
						"codeDepositCost": "106400",
						"executionCost": "153",
						"totalCost": "106553"
					},
					"external": {
						"changePixels(uint64,bytes)": "infinite",
						"claim(bytes)": "358",
						"lock(bytes8)": "187"
					}
				},
				"methodIdentifiers": {
					"changePixels(uint64,bytes)": "cdd8e3e5",
					"claim(bytes)": "c63ff8dd",
					"lock(bytes8)": "08e90893"
				}
			},
			"storageLayout": {
				"storage": [],
				"types": null
			},
			"userdoc": {
				"kind": "user",
				"methods": {},
				"version": 1
			}
		}
	}
}