{
	"contracts/placePixel.sol": {
		"placePixel": {
			"abi": [
				{
					"inputs": [
						{
							"internalType": "uint256",
							"name": "_costPerPixel",
							"type": "uint256"
						},
						{
							"internalType": "uint256",
							"name": "_challengePeriod",
							"type": "uint256"
						}
					],
					"stateMutability": "nonpayable",
					"type": "constructor"
				},
				{
					"anonymous": false,
					"inputs": [
						{
							"indexed": false,
							"internalType": "uint64",
							"name": "_n",
							"type": "uint64"
						},
						{
							"indexed": false,
							"internalType": "bytes",
							"name": "_pixels",
							"type": "bytes"
						}
					],
					"name": "PixelsChange",
					"type": "event"
				},
				{
					"inputs": [],
					"name": "challengePeriod",
					"outputs": [
						{
							"internalType": "uint256",
							"name": "",
							"type": "uint256"
						}
					],
					"stateMutability": "view",
					"type": "function"
				},
				{
					"inputs": [
						{
							"internalType": "bytes",
							"name": "_pixels",
							"type": "bytes"
						}
					],
					"name": "changePixels",
					"outputs": [],
					"stateMutability": "nonpayable",
					"type": "function"
				},
				{
					"inputs": [
						{
							"internalType": "bytes",
							"name": "data",
							"type": "bytes"
						}
					],
					"name": "claim",
					"outputs": [],
					"stateMutability": "nonpayable",
					"type": "function"
				},
				{
					"inputs": [],
					"name": "costPerPixel",
					"outputs": [
						{
							"internalType": "uint256",
							"name": "",
							"type": "uint256"
						}
					],
					"stateMutability": "view",
					"type": "function"
				},
				{
					"inputs": [],
					"name": "length",
					"outputs": [
						{
							"internalType": "uint256",
							"name": "",
							"type": "uint256"
						}
					],
					"stateMutability": "view",
					"type": "function"
				},
				{
					"inputs": [
						{
							"internalType": "uint16",
							"name": "x",
							"type": "uint16"
						},
						{
							"internalType": "uint16",
							"name": "y",
							"type": "uint16"
						},
						{
							"internalType": "uint16",
							"name": "xx",
							"type": "uint16"
						},
						{
							"internalType": "uint16",
							"name": "yy",
							"type": "uint16"
						}
					],
					"name": "lock",
					"outputs": [],
					"stateMutability": "payable",
					"type": "function"
				},
				{
					"inputs": [
						{
							"internalType": "address",
							"name": "",
							"type": "address"
						},
						{
							"internalType": "uint256",
							"name": "",
							"type": "uint256"
						}
					],
					"name": "lockRequests",
					"outputs": [
						{
							"internalType": "uint256",
							"name": "bond",
							"type": "uint256"
						},
						{
							"internalType": "uint256",
							"name": "timestamp",
							"type": "uint256"
						}
					],
					"stateMutability": "view",
					"type": "function"
				},
				{
					"inputs": [],
					"name": "withdrawDeposit",
					"outputs": [],
					"stateMutability": "nonpayable",
					"type": "function"
				}
			],
			"devdoc": {
				"kind": "dev",
				"methods": {},
				"version": 1
			},
			"evm": {
				"assembly": "    /* \"contracts/placePixel.sol\":175:1339  contract placePixel {... */\n  mstore(0x40, 0x80)\n    /* \"contracts/placePixel.sol\":487:637  constructor(uint256 _costPerPixel, uint256 _challengePeriod) {... */\n  callvalue\n  dup1\n  iszero\n  tag_1\n  jumpi\n  0x00\n  dup1\n  revert\ntag_1:\n  pop\n  mload(0x40)\n  sub(codesize, bytecodeSize)\n  dup1\n  bytecodeSize\n  dup4\n  codecopy\n  dup2\n  dup2\n  add\n  0x40\n  mstore\n  0x40\n  dup2\n  lt\n  iszero\n  tag_2\n  jumpi\n  0x00\n  dup1\n  revert\ntag_2:\n  pop\n  dup1\n  mload\n  0x20\n  swap1\n  swap2\n  add\n  mload\n    /* \"contracts/placePixel.sol\":558:570  costPerPixel */\n  0x00\n    /* \"contracts/placePixel.sol\":558:586  costPerPixel = _costPerPixel */\n  swap2\n  swap1\n  swap2\n  sstore\n    /* \"contracts/placePixel.sol\":596:611  challengePeriod */\n  0x01\n    /* \"contracts/placePixel.sol\":596:630  challengePeriod = _challengePeriod */\n  sstore\n    /* \"contracts/placePixel.sol\":175:1339  contract placePixel {... */\n  dataSize(sub_0)\n  dup1\n  dataOffset(sub_0)\n  0x00\n  codecopy\n  0x00\n  return\nstop\n\nsub_0: assembly {\n        /* \"contracts/placePixel.sol\":175:1339  contract placePixel {... */\n      mstore(0x40, 0x80)\n      jumpi(tag_1, lt(calldatasize, 0x04))\n      shr(0xe0, calldataload(0x00))\n      dup1\n      0xb015852e\n      gt\n      tag_10\n      jumpi\n      dup1\n      0xb015852e\n      eq\n      tag_6\n      jumpi\n      dup1\n      0xb3d7a2d2\n      eq\n      tag_7\n      jumpi\n      dup1\n      0xc63ff8dd\n      eq\n      tag_8\n      jumpi\n      dup1\n      0xf3f480d9\n      eq\n      tag_9\n      jumpi\n      jump(tag_1)\n    tag_10:\n      dup1\n      0x117df088\n      eq\n      tag_2\n      jumpi\n      dup1\n      0x1f7b6d32\n      eq\n      tag_3\n      jumpi\n      dup1\n      0x585dcc0a\n      eq\n      tag_4\n      jumpi\n      dup1\n      0xa4651279\n      eq\n      tag_5\n      jumpi\n    tag_1:\n      0x00\n      dup1\n      revert\n        /* \"contracts/placePixel.sol\":1294:1337  function withdrawDeposit() external{... */\n    tag_2:\n      callvalue\n      dup1\n      iszero\n      tag_11\n      jumpi\n      0x00\n      dup1\n      revert\n    tag_11:\n      pop\n      tag_12\n      tag_13\n      jump\t// in\n    tag_12:\n      stop\n        /* \"contracts/placePixel.sol\":321:342  uint256 public length */\n    tag_3:\n      callvalue\n      dup1\n      iszero\n      tag_14\n      jumpi\n      0x00\n      dup1\n      revert\n    tag_14:\n      pop\n      tag_15\n      tag_16\n      jump\t// in\n    tag_15:\n      0x40\n      dup1\n      mload\n      swap2\n      dup3\n      mstore\n      mload\n      swap1\n      dup2\n      swap1\n      sub\n      0x20\n      add\n      swap1\n      return\n        /* \"contracts/placePixel.sol\":252:279  uint256 public costPerPixel */\n    tag_4:\n      callvalue\n      dup1\n      iszero\n      tag_17\n      jumpi\n      0x00\n      dup1\n      revert\n    tag_17:\n      pop\n      tag_15\n      tag_19\n      jump\t// in\n        /* \"contracts/placePixel.sol\":348:400  mapping (address=>lockRequest[]) public lockRequests */\n    tag_5:\n      callvalue\n      dup1\n      iszero\n      tag_20\n      jumpi\n      0x00\n      dup1\n      revert\n    tag_20:\n      pop\n      tag_21\n      0x04\n      dup1\n      calldatasize\n      sub\n      0x40\n      dup2\n      lt\n      iszero\n      tag_22\n      jumpi\n      0x00\n      dup1\n      revert\n    tag_22:\n      pop\n      sub(shl(0xa0, 0x01), 0x01)\n      dup2\n      calldataload\n      and\n      swap1\n      0x20\n      add\n      calldataload\n      tag_23\n      jump\t// in\n    tag_21:\n      0x40\n      dup1\n      mload\n      swap3\n      dup4\n      mstore\n      0x20\n      dup4\n      add\n      swap2\n      swap1\n      swap2\n      mstore\n      dup1\n      mload\n      swap2\n      dup3\n      swap1\n      sub\n      add\n      swap1\n      return\n        /* \"contracts/placePixel.sol\":844:1288  function lock(uint16 x, uint16 y, uint16 xx, uint16 yy) external payable{... */\n    tag_6:\n      tag_12\n      0x04\n      dup1\n      calldatasize\n      sub\n      0x80\n      dup2\n      lt\n      iszero\n      tag_25\n      jumpi\n      0x00\n      dup1\n      revert\n    tag_25:\n      pop\n      0xffff\n      dup2\n      calldataload\n      dup2\n      and\n      swap2\n      0x20\n      dup2\n      add\n      calldataload\n      dup3\n      and\n      swap2\n      0x40\n      dup3\n      add\n      calldataload\n      dup2\n      and\n      swap2\n      0x60\n      add\n      calldataload\n      and\n      tag_26\n      jump\t// in\n        /* \"contracts/placePixel.sol\":701:838  function changePixels(bytes calldata _pixels) external{... */\n    tag_7:\n      callvalue\n      dup1\n      iszero\n      tag_27\n      jumpi\n      0x00\n      dup1\n      revert\n    tag_27:\n      pop\n      tag_12\n      0x04\n      dup1\n      calldatasize\n      sub\n      0x20\n      dup2\n      lt\n      iszero\n      tag_29\n      jumpi\n      0x00\n      dup1\n      revert\n    tag_29:\n      dup2\n      add\n      swap1\n      0x20\n      dup2\n      add\n      dup2\n      calldataload\n      0x0100000000\n      dup2\n      gt\n      iszero\n      tag_30\n      jumpi\n      0x00\n      dup1\n      revert\n    tag_30:\n      dup3\n      add\n      dup4\n      0x20\n      dup3\n      add\n      gt\n      iszero\n      tag_31\n      jumpi\n      0x00\n      dup1\n      revert\n    tag_31:\n      dup1\n      calldataload\n      swap1\n      0x20\n      add\n      swap2\n      dup5\n      0x01\n      dup4\n      mul\n      dup5\n      add\n      gt\n      0x0100000000\n      dup4\n      gt\n      or\n      iszero\n      tag_32\n      jumpi\n      0x00\n      dup1\n      revert\n    tag_32:\n      pop\n      swap1\n      swap3\n      pop\n      swap1\n      pop\n      tag_33\n      jump\t// in\n        /* \"contracts/placePixel.sol\":643:695  function claim(bytes calldata data) external {... */\n    tag_8:\n      callvalue\n      dup1\n      iszero\n      tag_34\n      jumpi\n      0x00\n      dup1\n      revert\n    tag_34:\n      pop\n      tag_12\n      0x04\n      dup1\n      calldatasize\n      sub\n      0x20\n      dup2\n      lt\n      iszero\n      tag_36\n      jumpi\n      0x00\n      dup1\n      revert\n    tag_36:\n      dup2\n      add\n      swap1\n      0x20\n      dup2\n      add\n      dup2\n      calldataload\n      0x0100000000\n      dup2\n      gt\n      iszero\n      tag_37\n      jumpi\n      0x00\n      dup1\n      revert\n    tag_37:\n      dup3\n      add\n      dup4\n      0x20\n      dup3\n      add\n      gt\n      iszero\n      tag_38\n      jumpi\n      0x00\n      dup1\n      revert\n    tag_38:\n      dup1\n      calldataload\n      swap1\n      0x20\n      add\n      swap2\n      dup5\n      0x01\n      dup4\n      mul\n      dup5\n      add\n      gt\n      0x0100000000\n      dup4\n      gt\n      or\n      iszero\n      tag_39\n      jumpi\n      0x00\n      dup1\n      revert\n    tag_39:\n      pop\n      swap1\n      swap3\n      pop\n      swap1\n      pop\n      tag_40\n      jump\t// in\n        /* \"contracts/placePixel.sol\":285:315  uint256 public challengePeriod */\n    tag_9:\n      callvalue\n      dup1\n      iszero\n      tag_41\n      jumpi\n      0x00\n      dup1\n      revert\n    tag_41:\n      pop\n      tag_15\n      tag_43\n      jump\t// in\n        /* \"contracts/placePixel.sol\":1294:1337  function withdrawDeposit() external{... */\n    tag_13:\n      jump\t// out\n        /* \"contracts/placePixel.sol\":321:342  uint256 public length */\n    tag_16:\n      sload(0x02)\n      dup2\n      jump\t// out\n        /* \"contracts/placePixel.sol\":252:279  uint256 public costPerPixel */\n    tag_19:\n      sload(0x00)\n      dup2\n      jump\t// out\n        /* \"contracts/placePixel.sol\":348:400  mapping (address=>lockRequest[]) public lockRequests */\n    tag_23:\n      mstore(0x20, 0x03)\n      dup2\n      0x00\n      mstore\n      keccak256(0x00, 0x40)\n      dup2\n      dup2\n      sload\n      dup2\n      lt\n      tag_45\n      jumpi\n      0x00\n      dup1\n      revert\n    tag_45:\n      0x00\n      swap2\n      dup3\n      mstore\n      0x20\n      swap1\n      swap2\n      keccak256\n      0x02\n      swap1\n      swap2\n      mul\n      add\n      dup1\n      sload\n      0x01\n      swap1\n      swap2\n      add\n      sload\n      swap1\n      swap3\n      pop\n      swap1\n      pop\n      dup3\n      jump\t// out\n        /* \"contracts/placePixel.sol\":844:1288  function lock(uint16 x, uint16 y, uint16 xx, uint16 yy) external payable{... */\n    tag_26:\n        /* \"contracts/placePixel.sol\":940:941  x */\n      dup4\n        /* \"contracts/placePixel.sol\":934:941  xx >= x */\n      0xffff\n      and\n        /* \"contracts/placePixel.sol\":934:936  xx */\n      dup3\n        /* \"contracts/placePixel.sol\":934:941  xx >= x */\n      0xffff\n      and\n      lt\n      iszero\n        /* \"contracts/placePixel.sol\":926:958  require(xx >= x, \"Invald area.\") */\n      tag_48\n      jumpi\n      0x40\n      dup1\n      mload\n      shl(0xe5, 0x461bcd)\n      dup2\n      mstore\n      0x20\n      0x04\n      dup3\n      add\n      mstore\n      0x0c\n      0x24\n      dup3\n      add\n      mstore\n      shl(0xa1, 0x24b73b30b6321030b932b097)\n      0x44\n      dup3\n      add\n      mstore\n      swap1\n      mload\n      swap1\n      dup2\n      swap1\n      sub\n      0x64\n      add\n      swap1\n      revert\n    tag_48:\n        /* \"contracts/placePixel.sol\":982:983  y */\n      dup3\n        /* \"contracts/placePixel.sol\":976:983  yy >= y */\n      0xffff\n      and\n        /* \"contracts/placePixel.sol\":976:978  yy */\n      dup2\n        /* \"contracts/placePixel.sol\":976:983  yy >= y */\n      0xffff\n      and\n      lt\n      iszero\n        /* \"contracts/placePixel.sol\":968:1000  require(yy >= y, \"Invald area.\") */\n      tag_49\n      jumpi\n      0x40\n      dup1\n      mload\n      shl(0xe5, 0x461bcd)\n      dup2\n      mstore\n      0x20\n      0x04\n      dup3\n      add\n      mstore\n      0x0c\n      0x24\n      dup3\n      add\n      mstore\n      shl(0xa1, 0x24b73b30b6321030b932b097)\n      0x44\n      dup3\n      add\n      mstore\n      swap1\n      mload\n      swap1\n      dup2\n      swap1\n      sub\n      0x64\n      add\n      swap1\n      revert\n    tag_49:\n        /* \"contracts/placePixel.sol\":1048:1060  costPerPixel */\n      sload(0x00)\n        /* \"contracts/placePixel.sol\":1043:1044  y */\n      dup4\n        /* \"contracts/placePixel.sol\":1040:1042  yy */\n      dup3\n        /* \"contracts/placePixel.sol\":1040:1044  yy-y */\n      sub\n        /* \"contracts/placePixel.sol\":1045:1046  1 */\n      0x01\n        /* \"contracts/placePixel.sol\":1040:1046  yy-y+1 */\n      add\n        /* \"contracts/placePixel.sol\":1034:1035  x */\n      dup6\n        /* \"contracts/placePixel.sol\":1031:1033  xx */\n      dup5\n        /* \"contracts/placePixel.sol\":1031:1035  xx-x */\n      sub\n        /* \"contracts/placePixel.sol\":1036:1037  1 */\n      0x01\n        /* \"contracts/placePixel.sol\":1031:1037  xx-x+1 */\n      add\n        /* \"contracts/placePixel.sol\":1030:1047  (xx-x+1)*(yy-y+1) */\n      mul\n        /* \"contracts/placePixel.sol\":1030:1060  (xx-x+1)*(yy-y+1)*costPerPixel */\n      0xffff\n      and\n      mul\n        /* \"contracts/placePixel.sol\":1018:1027  msg.value */\n      callvalue\n        /* \"contracts/placePixel.sol\":1018:1060  msg.value > (xx-x+1)*(yy-y+1)*costPerPixel */\n      gt\n        /* \"contracts/placePixel.sol\":1010:1086  require(msg.value > (xx-x+1)*(yy-y+1)*costPerPixel, \"Insufficient deposit.\") */\n      tag_50\n      jumpi\n      0x40\n      dup1\n      mload\n      shl(0xe5, 0x461bcd)\n      dup2\n      mstore\n      0x20\n      0x04\n      dup3\n      add\n      mstore\n      0x15\n      0x24\n      dup3\n      add\n      mstore\n      shl(0x59, 0x24b739bab33334b1b4b2b73a103232b837b9b4ba17)\n      0x44\n      dup3\n      add\n      mstore\n      swap1\n      mload\n      swap1\n      dup2\n      swap1\n      sub\n      0x64\n      add\n      swap1\n      revert\n    tag_50:\n      pop\n      pop\n        /* \"contracts/placePixel.sol\":1147:1157  msg.sender */\n      caller\n        /* \"contracts/placePixel.sol\":1096:1131  lockRequest[] storage _lockRequests */\n      0x00\n        /* \"contracts/placePixel.sol\":1134:1158  lockRequests[msg.sender] */\n      swap1\n      dup2\n      mstore\n        /* \"contracts/placePixel.sol\":1134:1146  lockRequests */\n      0x03\n        /* \"contracts/placePixel.sol\":1134:1158  lockRequests[msg.sender] */\n      0x20\n      swap1\n      dup2\n      mstore\n      0x40\n      dup1\n      dup4\n      keccak256\n        /* \"contracts/placePixel.sol\":1187:1279  lockRequest({... */\n      dup2\n      mload\n      dup1\n      dup4\n      add\n      swap1\n      swap3\n      mstore\n        /* \"contracts/placePixel.sol\":1219:1228  msg.value */\n      callvalue\n        /* \"contracts/placePixel.sol\":1187:1279  lockRequest({... */\n      dup3\n      mstore\n        /* \"contracts/placePixel.sol\":1253:1268  block.timestamp */\n      timestamp\n        /* \"contracts/placePixel.sol\":1187:1279  lockRequest({... */\n      dup3\n      dup5\n      add\n      swap1\n      dup2\n      mstore\n        /* \"contracts/placePixel.sol\":1168:1280  _lockRequests.push(lockRequest({... */\n      dup2\n      sload\n      0x01\n      dup2\n      dup2\n      add\n      dup5\n      sstore\n      swap3\n      dup7\n      mstore\n      swap4\n      swap1\n      swap5\n      keccak256\n      swap2\n      mload\n      0x02\n      swap1\n      swap4\n      mul\n      swap1\n      swap2\n      add\n      swap2\n      dup3\n      sstore\n      swap2\n      mload\n      swap2\n      add\n      sstore\n      pop\n      pop\n        /* \"contracts/placePixel.sol\":844:1288  function lock(uint16 x, uint16 y, uint16 xx, uint16 yy) external payable{... */\n      jump\t// out\n        /* \"contracts/placePixel.sol\":701:838  function changePixels(bytes calldata _pixels) external{... */\n    tag_33:\n        /* \"contracts/placePixel.sol\":807:813  length */\n      0x02\n        /* \"contracts/placePixel.sol\":807:830  length = _pixels.length */\n      sstore\n      pop\n        /* \"contracts/placePixel.sol\":701:838  function changePixels(bytes calldata _pixels) external{... */\n      jump\t// out\n        /* \"contracts/placePixel.sol\":643:695  function claim(bytes calldata data) external {... */\n    tag_40:\n      pop\n      pop\n      jump\t// out\n        /* \"contracts/placePixel.sol\":285:315  uint256 public challengePeriod */\n    tag_43:\n      sload(0x01)\n      dup2\n      jump\t// out\n\n    auxdata: 0xa2646970667358221220d66388ca05bc3effc86cb869e79862532bd6ddd95533cf61b2563bbb8bb0b0d764736f6c63430007060033\n}\n",
				"bytecode": {
					"linkReferences": {},
					"object": "608060405234801561001057600080fd5b506040516104953803806104958339818101604052604081101561003357600080fd5b508051602090910151600091909155600155610441806100546000396000f3fe60806040526004361061007b5760003560e01c8063b015852e1161004e578063b015852e14610125578063b3d7a2d21461015e578063c63ff8dd146101db578063f3f480d9146102585761007b565b8063117df088146100805780631f7b6d3214610097578063585dcc0a146100be578063a4651279146100d3575b600080fd5b34801561008c57600080fd5b5061009561026d565b005b3480156100a357600080fd5b506100ac61026f565b60408051918252519081900360200190f35b3480156100ca57600080fd5b506100ac610275565b3480156100df57600080fd5b5061010c600480360360408110156100f657600080fd5b506001600160a01b03813516906020013561027b565b6040805192835260208301919091528051918290030190f35b6100956004803603608081101561013b57600080fd5b5061ffff81358116916020810135821691604082013581169160600135166102b7565b34801561016a57600080fd5b506100956004803603602081101561018157600080fd5b81019060208101813564010000000081111561019c57600080fd5b8201836020820111156101ae57600080fd5b803590602001918460018302840111640100000000831117156101d057600080fd5b5090925090506103fb565b3480156101e757600080fd5b50610095600480360360208110156101fe57600080fd5b81019060208101813564010000000081111561021957600080fd5b82018360208201111561022b57600080fd5b8035906020019184600183028401116401000000008311171561024d57600080fd5b509092509050610401565b34801561026457600080fd5b506100ac610405565b565b60025481565b60005481565b6003602052816000526040600020818154811061029757600080fd5b600091825260209091206002909102018054600190910154909250905082565b8361ffff168261ffff161015610303576040805162461bcd60e51b815260206004820152600c60248201526b24b73b30b6321030b932b09760a11b604482015290519081900360640190fd5b8261ffff168161ffff16101561034f576040805162461bcd60e51b815260206004820152600c60248201526b24b73b30b6321030b932b09760a11b604482015290519081900360640190fd5b6000548382036001018584036001010261ffff160234116103af576040805162461bcd60e51b815260206004820152601560248201527424b739bab33334b1b4b2b73a103232b837b9b4ba1760591b604482015290519081900360640190fd5b5050336000908152600360209081526040808320815180830190925234825242828401908152815460018181018455928652939094209151600290930290910191825591519101555050565b60025550565b5050565b6001548156fea2646970667358221220d66388ca05bc3effc86cb869e79862532bd6ddd95533cf61b2563bbb8bb0b0d764736f6c63430007060033",
					"opcodes": "PUSH1 0x80 PUSH1 0x40 MSTORE CALLVALUE DUP1 ISZERO PUSH2 0x10 JUMPI PUSH1 0x0 DUP1 REVERT JUMPDEST POP PUSH1 0x40 MLOAD PUSH2 0x495 CODESIZE SUB DUP1 PUSH2 0x495 DUP4 CODECOPY DUP2 DUP2 ADD PUSH1 0x40 MSTORE PUSH1 0x40 DUP2 LT ISZERO PUSH2 0x33 JUMPI PUSH1 0x0 DUP1 REVERT JUMPDEST POP DUP1 MLOAD PUSH1 0x20 SWAP1 SWAP2 ADD MLOAD PUSH1 0x0 SWAP2 SWAP1 SWAP2 SSTORE PUSH1 0x1 SSTORE PUSH2 0x441 DUP1 PUSH2 0x54 PUSH1 0x0 CODECOPY PUSH1 0x0 RETURN INVALID PUSH1 0x80 PUSH1 0x40 MSTORE PUSH1 0x4 CALLDATASIZE LT PUSH2 0x7B JUMPI PUSH1 0x0 CALLDATALOAD PUSH1 0xE0 SHR DUP1 PUSH4 0xB015852E GT PUSH2 0x4E JUMPI DUP1 PUSH4 0xB015852E EQ PUSH2 0x125 JUMPI DUP1 PUSH4 0xB3D7A2D2 EQ PUSH2 0x15E JUMPI DUP1 PUSH4 0xC63FF8DD EQ PUSH2 0x1DB JUMPI DUP1 PUSH4 0xF3F480D9 EQ PUSH2 0x258 JUMPI PUSH2 0x7B JUMP JUMPDEST DUP1 PUSH4 0x117DF088 EQ PUSH2 0x80 JUMPI DUP1 PUSH4 0x1F7B6D32 EQ PUSH2 0x97 JUMPI DUP1 PUSH4 0x585DCC0A EQ PUSH2 0xBE JUMPI DUP1 PUSH4 0xA4651279 EQ PUSH2 0xD3 JUMPI JUMPDEST PUSH1 0x0 DUP1 REVERT JUMPDEST CALLVALUE DUP1 ISZERO PUSH2 0x8C JUMPI PUSH1 0x0 DUP1 REVERT JUMPDEST POP PUSH2 0x95 PUSH2 0x26D JUMP JUMPDEST STOP JUMPDEST CALLVALUE DUP1 ISZERO PUSH2 0xA3 JUMPI PUSH1 0x0 DUP1 REVERT JUMPDEST POP PUSH2 0xAC PUSH2 0x26F JUMP JUMPDEST PUSH1 0x40 DUP1 MLOAD SWAP2 DUP3 MSTORE MLOAD SWAP1 DUP2 SWAP1 SUB PUSH1 0x20 ADD SWAP1 RETURN JUMPDEST CALLVALUE DUP1 ISZERO PUSH2 0xCA JUMPI PUSH1 0x0 DUP1 REVERT JUMPDEST POP PUSH2 0xAC PUSH2 0x275 JUMP JUMPDEST CALLVALUE DUP1 ISZERO PUSH2 0xDF JUMPI PUSH1 0x0 DUP1 REVERT JUMPDEST POP PUSH2 0x10C PUSH1 0x4 DUP1 CALLDATASIZE SUB PUSH1 0x40 DUP2 LT ISZERO PUSH2 0xF6 JUMPI PUSH1 0x0 DUP1 REVERT JUMPDEST POP PUSH1 0x1 PUSH1 0x1 PUSH1 0xA0 SHL SUB DUP2 CALLDATALOAD AND SWAP1 PUSH1 0x20 ADD CALLDATALOAD PUSH2 0x27B JUMP JUMPDEST PUSH1 0x40 DUP1 MLOAD SWAP3 DUP4 MSTORE PUSH1 0x20 DUP4 ADD SWAP2 SWAP1 SWAP2 MSTORE DUP1 MLOAD SWAP2 DUP3 SWAP1 SUB ADD SWAP1 RETURN JUMPDEST PUSH2 0x95 PUSH1 0x4 DUP1 CALLDATASIZE SUB PUSH1 0x80 DUP2 LT ISZERO PUSH2 0x13B JUMPI PUSH1 0x0 DUP1 REVERT JUMPDEST POP PUSH2 0xFFFF DUP2 CALLDATALOAD DUP2 AND SWAP2 PUSH1 0x20 DUP2 ADD CALLDATALOAD DUP3 AND SWAP2 PUSH1 0x40 DUP3 ADD CALLDATALOAD DUP2 AND SWAP2 PUSH1 0x60 ADD CALLDATALOAD AND PUSH2 0x2B7 JUMP JUMPDEST CALLVALUE DUP1 ISZERO PUSH2 0x16A JUMPI PUSH1 0x0 DUP1 REVERT JUMPDEST POP PUSH2 0x95 PUSH1 0x4 DUP1 CALLDATASIZE SUB PUSH1 0x20 DUP2 LT ISZERO PUSH2 0x181 JUMPI PUSH1 0x0 DUP1 REVERT JUMPDEST DUP2 ADD SWAP1 PUSH1 0x20 DUP2 ADD DUP2 CALLDATALOAD PUSH5 0x100000000 DUP2 GT ISZERO PUSH2 0x19C JUMPI PUSH1 0x0 DUP1 REVERT JUMPDEST DUP3 ADD DUP4 PUSH1 0x20 DUP3 ADD GT ISZERO PUSH2 0x1AE JUMPI PUSH1 0x0 DUP1 REVERT JUMPDEST DUP1 CALLDATALOAD SWAP1 PUSH1 0x20 ADD SWAP2 DUP5 PUSH1 0x1 DUP4 MUL DUP5 ADD GT PUSH5 0x100000000 DUP4 GT OR ISZERO PUSH2 0x1D0 JUMPI PUSH1 0x0 DUP1 REVERT JUMPDEST POP SWAP1 SWAP3 POP SWAP1 POP PUSH2 0x3FB JUMP JUMPDEST CALLVALUE DUP1 ISZERO PUSH2 0x1E7 JUMPI PUSH1 0x0 DUP1 REVERT JUMPDEST POP PUSH2 0x95 PUSH1 0x4 DUP1 CALLDATASIZE SUB PUSH1 0x20 DUP2 LT ISZERO PUSH2 0x1FE JUMPI PUSH1 0x0 DUP1 REVERT JUMPDEST DUP2 ADD SWAP1 PUSH1 0x20 DUP2 ADD DUP2 CALLDATALOAD PUSH5 0x100000000 DUP2 GT ISZERO PUSH2 0x219 JUMPI PUSH1 0x0 DUP1 REVERT JUMPDEST DUP3 ADD DUP4 PUSH1 0x20 DUP3 ADD GT ISZERO PUSH2 0x22B JUMPI PUSH1 0x0 DUP1 REVERT JUMPDEST DUP1 CALLDATALOAD SWAP1 PUSH1 0x20 ADD SWAP2 DUP5 PUSH1 0x1 DUP4 MUL DUP5 ADD GT PUSH5 0x100000000 DUP4 GT OR ISZERO PUSH2 0x24D JUMPI PUSH1 0x0 DUP1 REVERT JUMPDEST POP SWAP1 SWAP3 POP SWAP1 POP PUSH2 0x401 JUMP JUMPDEST CALLVALUE DUP1 ISZERO PUSH2 0x264 JUMPI PUSH1 0x0 DUP1 REVERT JUMPDEST POP PUSH2 0xAC PUSH2 0x405 JUMP JUMPDEST JUMP JUMPDEST PUSH1 0x2 SLOAD DUP2 JUMP JUMPDEST PUSH1 0x0 SLOAD DUP2 JUMP JUMPDEST PUSH1 0x3 PUSH1 0x20 MSTORE DUP2 PUSH1 0x0 MSTORE PUSH1 0x40 PUSH1 0x0 KECCAK256 DUP2 DUP2 SLOAD DUP2 LT PUSH2 0x297 JUMPI PUSH1 0x0 DUP1 REVERT JUMPDEST PUSH1 0x0 SWAP2 DUP3 MSTORE PUSH1 0x20 SWAP1 SWAP2 KECCAK256 PUSH1 0x2 SWAP1 SWAP2 MUL ADD DUP1 SLOAD PUSH1 0x1 SWAP1 SWAP2 ADD SLOAD SWAP1 SWAP3 POP SWAP1 POP DUP3 JUMP JUMPDEST DUP4 PUSH2 0xFFFF AND DUP3 PUSH2 0xFFFF AND LT ISZERO PUSH2 0x303 JUMPI PUSH1 0x40 DUP1 MLOAD PUSH3 0x461BCD PUSH1 0xE5 SHL DUP2 MSTORE PUSH1 0x20 PUSH1 0x4 DUP3 ADD MSTORE PUSH1 0xC PUSH1 0x24 DUP3 ADD MSTORE PUSH12 0x24B73B30B6321030B932B097 PUSH1 0xA1 SHL PUSH1 0x44 DUP3 ADD MSTORE SWAP1 MLOAD SWAP1 DUP2 SWAP1 SUB PUSH1 0x64 ADD SWAP1 REVERT JUMPDEST DUP3 PUSH2 0xFFFF AND DUP2 PUSH2 0xFFFF AND LT ISZERO PUSH2 0x34F JUMPI PUSH1 0x40 DUP1 MLOAD PUSH3 0x461BCD PUSH1 0xE5 SHL DUP2 MSTORE PUSH1 0x20 PUSH1 0x4 DUP3 ADD MSTORE PUSH1 0xC PUSH1 0x24 DUP3 ADD MSTORE PUSH12 0x24B73B30B6321030B932B097 PUSH1 0xA1 SHL PUSH1 0x44 DUP3 ADD MSTORE SWAP1 MLOAD SWAP1 DUP2 SWAP1 SUB PUSH1 0x64 ADD SWAP1 REVERT JUMPDEST PUSH1 0x0 SLOAD DUP4 DUP3 SUB PUSH1 0x1 ADD DUP6 DUP5 SUB PUSH1 0x1 ADD MUL PUSH2 0xFFFF AND MUL CALLVALUE GT PUSH2 0x3AF JUMPI PUSH1 0x40 DUP1 MLOAD PUSH3 0x461BCD PUSH1 0xE5 SHL DUP2 MSTORE PUSH1 0x20 PUSH1 0x4 DUP3 ADD MSTORE PUSH1 0x15 PUSH1 0x24 DUP3 ADD MSTORE PUSH21 0x24B739BAB33334B1B4B2B73A103232B837B9B4BA17 PUSH1 0x59 SHL PUSH1 0x44 DUP3 ADD MSTORE SWAP1 MLOAD SWAP1 DUP2 SWAP1 SUB PUSH1 0x64 ADD SWAP1 REVERT JUMPDEST POP POP CALLER PUSH1 0x0 SWAP1 DUP2 MSTORE PUSH1 0x3 PUSH1 0x20 SWAP1 DUP2 MSTORE PUSH1 0x40 DUP1 DUP4 KECCAK256 DUP2 MLOAD DUP1 DUP4 ADD SWAP1 SWAP3 MSTORE CALLVALUE DUP3 MSTORE TIMESTAMP DUP3 DUP5 ADD SWAP1 DUP2 MSTORE DUP2 SLOAD PUSH1 0x1 DUP2 DUP2 ADD DUP5 SSTORE SWAP3 DUP7 MSTORE SWAP4 SWAP1 SWAP5 KECCAK256 SWAP2 MLOAD PUSH1 0x2 SWAP1 SWAP4 MUL SWAP1 SWAP2 ADD SWAP2 DUP3 SSTORE SWAP2 MLOAD SWAP2 ADD SSTORE POP POP JUMP JUMPDEST PUSH1 0x2 SSTORE POP JUMP JUMPDEST POP POP JUMP JUMPDEST PUSH1 0x1 SLOAD DUP2 JUMP INVALID LOG2 PUSH5 0x6970667358 0x22 SLT KECCAK256 0xD6 PUSH4 0x88CA05BC RETURNDATACOPY SELFDESTRUCT 0xC8 PUSH13 0xB869E79862532BD6DDD95533CF PUSH2 0xB256 EXTCODESIZE 0xBB DUP12 0xB0 0xB0 0xD7 PUSH5 0x736F6C6343 STOP SMOD MOD STOP CALLER "
				},
				"gasEstimates": {
					"creation": {
						"codeDepositCost": "217800",
						"executionCost": "infinite",
						"totalCost": "infinite"
					},
					"external": {
						"challengePeriod()": "1064",
						"changePixels(bytes)": "20381",
						"claim(bytes)": "402",
						"costPerPixel()": "1043",
						"length()": "1021",
						"lock(uint16,uint16,uint16,uint16)": "62243",
						"lockRequests(address,uint256)": "2955",
						"withdrawDeposit()": "145"
					}
				},
				"methodIdentifiers": {
					"challengePeriod()": "f3f480d9",
					"changePixels(bytes)": "b3d7a2d2",
					"claim(bytes)": "c63ff8dd",
					"costPerPixel()": "585dcc0a",
					"length()": "1f7b6d32",
					"lock(uint16,uint16,uint16,uint16)": "b015852e",
					"lockRequests(address,uint256)": "a4651279",
					"withdrawDeposit()": "117df088"
				}
			},
			"storageLayout": {
				"storage": [
					{
						"astId": 70,
						"contract": "contracts/placePixel.sol:placePixel",
						"label": "costPerPixel",
						"offset": 0,
						"slot": "0",
						"type": "t_uint256"
					},
					{
						"astId": 72,
						"contract": "contracts/placePixel.sol:placePixel",
						"label": "challengePeriod",
						"offset": 0,
						"slot": "1",
						"type": "t_uint256"
					},
					{
						"astId": 74,
						"contract": "contracts/placePixel.sol:placePixel",
						"label": "length",
						"offset": 0,
						"slot": "2",
						"type": "t_uint256"
					},
					{
						"astId": 79,
						"contract": "contracts/placePixel.sol:placePixel",
						"label": "lockRequests",
						"offset": 0,
						"slot": "3",
						"type": "t_mapping(t_address,t_array(t_struct(lockRequest)84_storage)dyn_storage)"
					}
				],
				"types": {
					"t_address": {
						"encoding": "inplace",
						"label": "address",
						"numberOfBytes": "20"
					},
					"t_array(t_struct(lockRequest)84_storage)dyn_storage": {
						"base": "t_struct(lockRequest)84_storage",
						"encoding": "dynamic_array",
						"label": "struct placePixel.lockRequest[]",
						"numberOfBytes": "32"
					},
					"t_mapping(t_address,t_array(t_struct(lockRequest)84_storage)dyn_storage)": {
						"encoding": "mapping",
						"key": "t_address",
						"label": "mapping(address => struct placePixel.lockRequest[])",
						"numberOfBytes": "32",
						"value": "t_array(t_struct(lockRequest)84_storage)dyn_storage"
					},
					"t_struct(lockRequest)84_storage": {
						"encoding": "inplace",
						"label": "struct placePixel.lockRequest",
						"members": [
							{
								"astId": 81,
								"contract": "contracts/placePixel.sol:placePixel",
								"label": "bond",
								"offset": 0,
								"slot": "0",
								"type": "t_uint256"
							},
							{
								"astId": 83,
								"contract": "contracts/placePixel.sol:placePixel",
								"label": "timestamp",
								"offset": 0,
								"slot": "1",
								"type": "t_uint256"
							}
						],
						"numberOfBytes": "64"
					},
					"t_uint256": {
						"encoding": "inplace",
						"label": "uint256",
						"numberOfBytes": "32"
					}
				}
			},
			"userdoc": {
				"kind": "user",
				"methods": {},
				"version": 1
			}
		}
	}
}