{
	"contracts/placePixel.sol": {
		"placePixel": {
			"abi": [
				{
					"inputs": [
						{
							"internalType": "uint256",
							"name": "_costPerPixel",
							"type": "uint256"
						}
					],
					"stateMutability": "nonpayable",
					"type": "constructor"
				},
				{
					"anonymous": false,
					"inputs": [
						{
							"indexed": false,
							"internalType": "uint64",
							"name": "_n",
							"type": "uint64"
						},
						{
							"indexed": false,
							"internalType": "bytes",
							"name": "_pixels",
							"type": "bytes"
						}
					],
					"name": "PixelsChange",
					"type": "event"
				},
				{
					"inputs": [
						{
							"internalType": "uint64",
							"name": "_n",
							"type": "uint64"
						},
						{
							"internalType": "bytes",
							"name": "_pixels",
							"type": "bytes"
						}
					],
					"name": "changePixels",
					"outputs": [],
					"stateMutability": "nonpayable",
					"type": "function"
				},
				{
					"inputs": [
						{
							"internalType": "bytes",
							"name": "data",
							"type": "bytes"
						}
					],
					"name": "claim",
					"outputs": [],
					"stateMutability": "nonpayable",
					"type": "function"
				},
				{
					"inputs": [
						{
							"internalType": "uint16",
							"name": "x",
							"type": "uint16"
						},
						{
							"internalType": "uint16",
							"name": "y",
							"type": "uint16"
						},
						{
							"internalType": "uint16",
							"name": "xx",
							"type": "uint16"
						},
						{
							"internalType": "uint16",
							"name": "yy",
							"type": "uint16"
						}
					],
					"name": "lock",
					"outputs": [],
					"stateMutability": "payable",
					"type": "function"
				},
				{
					"inputs": [],
					"name": "withdrawDeposit",
					"outputs": [],
					"stateMutability": "nonpayable",
					"type": "function"
				}
			],
			"devdoc": {
				"kind": "dev",
				"methods": {},
				"version": 1
			},
			"evm": {
				"assembly": "    /* \"contracts/placePixel.sol\":175:839  contract placePixel {... */\n  mstore(0x40, 0x80)\n    /* \"contracts/placePixel.sol\":279:359  constructor(uint256 _costPerPixel) {... */\n  callvalue\n  dup1\n  iszero\n  tag_1\n  jumpi\n  0x00\n  dup1\n  revert\ntag_1:\n  pop\n  mload(0x40)\n  sub(codesize, bytecodeSize)\n  dup1\n  bytecodeSize\n  dup4\n  codecopy\n  dup2\n  dup2\n  add\n  0x40\n  mstore\n  0x20\n  dup2\n  lt\n  iszero\n  tag_2\n  jumpi\n  0x00\n  dup1\n  revert\ntag_2:\n  pop\n  mload\n    /* \"contracts/placePixel.sol\":324:336  costPerPixel */\n  0x00\n    /* \"contracts/placePixel.sol\":324:352  costPerPixel = _costPerPixel */\n  sstore\n    /* \"contracts/placePixel.sol\":175:839  contract placePixel {... */\n  dataSize(sub_0)\n  dup1\n  dataOffset(sub_0)\n  0x00\n  codecopy\n  0x00\n  return\nstop\n\nsub_0: assembly {\n        /* \"contracts/placePixel.sol\":175:839  contract placePixel {... */\n      mstore(0x40, 0x80)\n      jumpi(tag_1, lt(calldatasize, 0x04))\n      shr(0xe0, calldataload(0x00))\n      dup1\n      0x117df088\n      eq\n      tag_2\n      jumpi\n      dup1\n      0xb015852e\n      eq\n      tag_3\n      jumpi\n      dup1\n      0xc63ff8dd\n      eq\n      tag_4\n      jumpi\n      dup1\n      0xcdd8e3e5\n      eq\n      tag_5\n      jumpi\n    tag_1:\n      0x00\n      dup1\n      revert\n        /* \"contracts/placePixel.sol\":794:837  function withdrawDeposit() external{... */\n    tag_2:\n      callvalue\n      dup1\n      iszero\n      tag_6\n      jumpi\n      0x00\n      dup1\n      revert\n    tag_6:\n      pop\n      tag_7\n      tag_8\n      jump\t// in\n    tag_7:\n      stop\n        /* \"contracts/placePixel.sol\":542:788  function lock(uint16 x, uint16 y, uint16 xx, uint16 yy) external payable{... */\n    tag_3:\n      tag_7\n      0x04\n      dup1\n      calldatasize\n      sub\n      0x80\n      dup2\n      lt\n      iszero\n      tag_10\n      jumpi\n      0x00\n      dup1\n      revert\n    tag_10:\n      pop\n      0xffff\n      dup2\n      calldataload\n      dup2\n      and\n      swap2\n      0x20\n      dup2\n      add\n      calldataload\n      dup3\n      and\n      swap2\n      0x40\n      dup3\n      add\n      calldataload\n      dup2\n      and\n      swap2\n      0x60\n      add\n      calldataload\n      and\n      tag_11\n      jump\t// in\n        /* \"contracts/placePixel.sol\":365:417  function claim(bytes calldata data) external {... */\n    tag_4:\n      callvalue\n      dup1\n      iszero\n      tag_12\n      jumpi\n      0x00\n      dup1\n      revert\n    tag_12:\n      pop\n      tag_7\n      0x04\n      dup1\n      calldatasize\n      sub\n      0x20\n      dup2\n      lt\n      iszero\n      tag_14\n      jumpi\n      0x00\n      dup1\n      revert\n    tag_14:\n      dup2\n      add\n      swap1\n      0x20\n      dup2\n      add\n      dup2\n      calldataload\n      0x0100000000\n      dup2\n      gt\n      iszero\n      tag_15\n      jumpi\n      0x00\n      dup1\n      revert\n    tag_15:\n      dup3\n      add\n      dup4\n      0x20\n      dup3\n      add\n      gt\n      iszero\n      tag_16\n      jumpi\n      0x00\n      dup1\n      revert\n    tag_16:\n      dup1\n      calldataload\n      swap1\n      0x20\n      add\n      swap2\n      dup5\n      0x01\n      dup4\n      mul\n      dup5\n      add\n      gt\n      0x0100000000\n      dup4\n      gt\n      or\n      iszero\n      tag_17\n      jumpi\n      0x00\n      dup1\n      revert\n    tag_17:\n      pop\n      swap1\n      swap3\n      pop\n      swap1\n      pop\n      tag_18\n      jump\t// in\n        /* \"contracts/placePixel.sol\":423:536  function changePixels(uint64 _n, bytes calldata _pixels) external{... */\n    tag_5:\n      callvalue\n      dup1\n      iszero\n      tag_19\n      jumpi\n      0x00\n      dup1\n      revert\n    tag_19:\n      pop\n      tag_7\n      0x04\n      dup1\n      calldatasize\n      sub\n      0x40\n      dup2\n      lt\n      iszero\n      tag_21\n      jumpi\n      0x00\n      dup1\n      revert\n    tag_21:\n      0xffffffffffffffff\n      dup3\n      calldataload\n      and\n      swap2\n      swap1\n      dup2\n      add\n      swap1\n      0x40\n      dup2\n      add\n      0x20\n      dup3\n      add\n      calldataload\n      0x0100000000\n      dup2\n      gt\n      iszero\n      tag_22\n      jumpi\n      0x00\n      dup1\n      revert\n    tag_22:\n      dup3\n      add\n      dup4\n      0x20\n      dup3\n      add\n      gt\n      iszero\n      tag_23\n      jumpi\n      0x00\n      dup1\n      revert\n    tag_23:\n      dup1\n      calldataload\n      swap1\n      0x20\n      add\n      swap2\n      dup5\n      0x01\n      dup4\n      mul\n      dup5\n      add\n      gt\n      0x0100000000\n      dup4\n      gt\n      or\n      iszero\n      tag_24\n      jumpi\n      0x00\n      dup1\n      revert\n    tag_24:\n      pop\n      swap1\n      swap3\n      pop\n      swap1\n      pop\n      tag_25\n      jump\t// in\n        /* \"contracts/placePixel.sol\":794:837  function withdrawDeposit() external{... */\n    tag_8:\n      jump\t// out\n        /* \"contracts/placePixel.sol\":542:788  function lock(uint16 x, uint16 y, uint16 xx, uint16 yy) external payable{... */\n    tag_11:\n        /* \"contracts/placePixel.sol\":638:639  x */\n      dup4\n        /* \"contracts/placePixel.sol\":632:639  xx >= x */\n      0xffff\n      and\n        /* \"contracts/placePixel.sol\":632:634  xx */\n      dup3\n        /* \"contracts/placePixel.sol\":632:639  xx >= x */\n      0xffff\n      and\n      lt\n      iszero\n        /* \"contracts/placePixel.sol\":624:656  require(xx >= x, \"Invald area.\") */\n      tag_28\n      jumpi\n      0x40\n      dup1\n      mload\n      shl(0xe5, 0x461bcd)\n      dup2\n      mstore\n      0x20\n      0x04\n      dup3\n      add\n      mstore\n      0x0c\n      0x24\n      dup3\n      add\n      mstore\n      shl(0xa1, 0x24b73b30b6321030b932b097)\n      0x44\n      dup3\n      add\n      mstore\n      swap1\n      mload\n      swap1\n      dup2\n      swap1\n      sub\n      0x64\n      add\n      swap1\n      revert\n    tag_28:\n        /* \"contracts/placePixel.sol\":680:681  y */\n      dup3\n        /* \"contracts/placePixel.sol\":674:681  yy >= y */\n      0xffff\n      and\n        /* \"contracts/placePixel.sol\":674:676  yy */\n      dup2\n        /* \"contracts/placePixel.sol\":674:681  yy >= y */\n      0xffff\n      and\n      lt\n      iszero\n        /* \"contracts/placePixel.sol\":666:698  require(yy >= y, \"Invald area.\") */\n      tag_29\n      jumpi\n      0x40\n      dup1\n      mload\n      shl(0xe5, 0x461bcd)\n      dup2\n      mstore\n      0x20\n      0x04\n      dup3\n      add\n      mstore\n      0x0c\n      0x24\n      dup3\n      add\n      mstore\n      shl(0xa1, 0x24b73b30b6321030b932b097)\n      0x44\n      dup3\n      add\n      mstore\n      swap1\n      mload\n      swap1\n      dup2\n      swap1\n      sub\n      0x64\n      add\n      swap1\n      revert\n    tag_29:\n        /* \"contracts/placePixel.sol\":742:754  costPerPixel */\n      sload(0x00)\n        /* \"contracts/placePixel.sol\":739:740  y */\n      dup4\n        /* \"contracts/placePixel.sol\":736:738  yy */\n      dup3\n        /* \"contracts/placePixel.sol\":736:740  yy-y */\n      sub\n        /* \"contracts/placePixel.sol\":732:733  x */\n      dup6\n        /* \"contracts/placePixel.sol\":729:731  xx */\n      dup5\n        /* \"contracts/placePixel.sol\":729:733  xx-x */\n      sub\n        /* \"contracts/placePixel.sol\":728:741  (xx-x)*(yy-y) */\n      mul\n        /* \"contracts/placePixel.sol\":728:754  (xx-x)*(yy-y)*costPerPixel */\n      0xffff\n      and\n      mul\n        /* \"contracts/placePixel.sol\":716:725  msg.value */\n      callvalue\n        /* \"contracts/placePixel.sol\":716:754  msg.value > (xx-x)*(yy-y)*costPerPixel */\n      gt\n        /* \"contracts/placePixel.sol\":708:780  require(msg.value > (xx-x)*(yy-y)*costPerPixel, \"Insufficient deposit.\") */\n      tag_30\n      jumpi\n      0x40\n      dup1\n      mload\n      shl(0xe5, 0x461bcd)\n      dup2\n      mstore\n      0x20\n      0x04\n      dup3\n      add\n      mstore\n      0x15\n      0x24\n      dup3\n      add\n      mstore\n      shl(0x59, 0x24b739bab33334b1b4b2b73a103232b837b9b4ba17)\n      0x44\n      dup3\n      add\n      mstore\n      swap1\n      mload\n      swap1\n      dup2\n      swap1\n      sub\n      0x64\n      add\n      swap1\n      revert\n    tag_30:\n        /* \"contracts/placePixel.sol\":542:788  function lock(uint16 x, uint16 y, uint16 xx, uint16 yy) external payable{... */\n      pop\n      pop\n      pop\n      pop\n      jump\t// out\n        /* \"contracts/placePixel.sol\":365:417  function claim(bytes calldata data) external {... */\n    tag_18:\n      pop\n      pop\n      jump\t// out\n        /* \"contracts/placePixel.sol\":423:536  function changePixels(uint64 _n, bytes calldata _pixels) external{... */\n    tag_25:\n        /* \"contracts/placePixel.sol\":503:528  PixelsChange(_n, _pixels) */\n      0x9733cc983acbb5bc34f1beb2f9a6fcf17855246773099d1f1a8fd9a7b69c0312\n        /* \"contracts/placePixel.sol\":516:518  _n */\n      dup4\n        /* \"contracts/placePixel.sol\":520:527  _pixels */\n      dup4\n      dup4\n        /* \"contracts/placePixel.sol\":503:528  PixelsChange(_n, _pixels) */\n      mload(0x40)\n      dup1\n      dup5\n      0xffffffffffffffff\n      and\n      dup2\n      mstore\n      0x20\n      add\n      dup1\n      0x20\n      add\n      dup3\n      dup2\n      sub\n      dup3\n      mstore\n      dup5\n      dup5\n      dup3\n      dup2\n      dup2\n      mstore\n      0x20\n      add\n      swap3\n      pop\n      dup1\n      dup3\n      dup5\n      calldatacopy\n      0x00\n      dup4\n      dup3\n      add\n      mstore\n      mload(0x40)\n      0x1f\n      swap1\n      swap2\n      add\n      not(0x1f)\n      and\n      swap1\n      swap3\n      add\n      dup3\n      swap1\n      sub\n      swap7\n      pop\n      swap1\n      swap5\n      pop\n      pop\n      pop\n      pop\n      pop\n      log1\n        /* \"contracts/placePixel.sol\":423:536  function changePixels(uint64 _n, bytes calldata _pixels) external{... */\n      pop\n      pop\n      pop\n      jump\t// out\n\n    auxdata: 0xa2646970667358221220630b1487ed1b98a44dc4d3ddc4baed9c1f9cd525140f6ce8406e0b0ce001dc1064736f6c63430007060033\n}\n",
				"bytecode": {
					"linkReferences": {},
					"object": "608060405234801561001057600080fd5b506040516103913803806103918339818101604052602081101561003357600080fd5b505160005561034a806100476000396000f3fe60806040526004361061003f5760003560e01c8063117df08814610044578063b015852e1461005b578063c63ff8dd14610094578063cdd8e3e514610111575b600080fd5b34801561005057600080fd5b5061005961019f565b005b6100596004803603608081101561007157600080fd5b5061ffff81358116916020810135821691604082013581169160600135166101a1565b3480156100a057600080fd5b50610059600480360360208110156100b757600080fd5b8101906020810181356401000000008111156100d257600080fd5b8201836020820111156100e457600080fd5b8035906020019184600183028401116401000000008311171561010657600080fd5b509092509050610299565b34801561011d57600080fd5b506100596004803603604081101561013457600080fd5b67ffffffffffffffff823516919081019060408101602082013564010000000081111561016057600080fd5b82018360208201111561017257600080fd5b8035906020019184600183028401116401000000008311171561019457600080fd5b50909250905061029d565b565b8361ffff168261ffff1610156101ed576040805162461bcd60e51b815260206004820152600c60248201526b24b73b30b6321030b932b09760a11b604482015290519081900360640190fd5b8261ffff168161ffff161015610239576040805162461bcd60e51b815260206004820152600c60248201526b24b73b30b6321030b932b09760a11b604482015290519081900360640190fd5b6000548382038584030261ffff16023411610293576040805162461bcd60e51b815260206004820152601560248201527424b739bab33334b1b4b2b73a103232b837b9b4ba1760591b604482015290519081900360640190fd5b50505050565b5050565b7f9733cc983acbb5bc34f1beb2f9a6fcf17855246773099d1f1a8fd9a7b69c0312838383604051808467ffffffffffffffff168152602001806020018281038252848482818152602001925080828437600083820152604051601f909101601f1916909201829003965090945050505050a150505056fea2646970667358221220630b1487ed1b98a44dc4d3ddc4baed9c1f9cd525140f6ce8406e0b0ce001dc1064736f6c63430007060033",
					"opcodes": "PUSH1 0x80 PUSH1 0x40 MSTORE CALLVALUE DUP1 ISZERO PUSH2 0x10 JUMPI PUSH1 0x0 DUP1 REVERT JUMPDEST POP PUSH1 0x40 MLOAD PUSH2 0x391 CODESIZE SUB DUP1 PUSH2 0x391 DUP4 CODECOPY DUP2 DUP2 ADD PUSH1 0x40 MSTORE PUSH1 0x20 DUP2 LT ISZERO PUSH2 0x33 JUMPI PUSH1 0x0 DUP1 REVERT JUMPDEST POP MLOAD PUSH1 0x0 SSTORE PUSH2 0x34A DUP1 PUSH2 0x47 PUSH1 0x0 CODECOPY PUSH1 0x0 RETURN INVALID PUSH1 0x80 PUSH1 0x40 MSTORE PUSH1 0x4 CALLDATASIZE LT PUSH2 0x3F JUMPI PUSH1 0x0 CALLDATALOAD PUSH1 0xE0 SHR DUP1 PUSH4 0x117DF088 EQ PUSH2 0x44 JUMPI DUP1 PUSH4 0xB015852E EQ PUSH2 0x5B JUMPI DUP1 PUSH4 0xC63FF8DD EQ PUSH2 0x94 JUMPI DUP1 PUSH4 0xCDD8E3E5 EQ PUSH2 0x111 JUMPI JUMPDEST PUSH1 0x0 DUP1 REVERT JUMPDEST CALLVALUE DUP1 ISZERO PUSH2 0x50 JUMPI PUSH1 0x0 DUP1 REVERT JUMPDEST POP PUSH2 0x59 PUSH2 0x19F JUMP JUMPDEST STOP JUMPDEST PUSH2 0x59 PUSH1 0x4 DUP1 CALLDATASIZE SUB PUSH1 0x80 DUP2 LT ISZERO PUSH2 0x71 JUMPI PUSH1 0x0 DUP1 REVERT JUMPDEST POP PUSH2 0xFFFF DUP2 CALLDATALOAD DUP2 AND SWAP2 PUSH1 0x20 DUP2 ADD CALLDATALOAD DUP3 AND SWAP2 PUSH1 0x40 DUP3 ADD CALLDATALOAD DUP2 AND SWAP2 PUSH1 0x60 ADD CALLDATALOAD AND PUSH2 0x1A1 JUMP JUMPDEST CALLVALUE DUP1 ISZERO PUSH2 0xA0 JUMPI PUSH1 0x0 DUP1 REVERT JUMPDEST POP PUSH2 0x59 PUSH1 0x4 DUP1 CALLDATASIZE SUB PUSH1 0x20 DUP2 LT ISZERO PUSH2 0xB7 JUMPI PUSH1 0x0 DUP1 REVERT JUMPDEST DUP2 ADD SWAP1 PUSH1 0x20 DUP2 ADD DUP2 CALLDATALOAD PUSH5 0x100000000 DUP2 GT ISZERO PUSH2 0xD2 JUMPI PUSH1 0x0 DUP1 REVERT JUMPDEST DUP3 ADD DUP4 PUSH1 0x20 DUP3 ADD GT ISZERO PUSH2 0xE4 JUMPI PUSH1 0x0 DUP1 REVERT JUMPDEST DUP1 CALLDATALOAD SWAP1 PUSH1 0x20 ADD SWAP2 DUP5 PUSH1 0x1 DUP4 MUL DUP5 ADD GT PUSH5 0x100000000 DUP4 GT OR ISZERO PUSH2 0x106 JUMPI PUSH1 0x0 DUP1 REVERT JUMPDEST POP SWAP1 SWAP3 POP SWAP1 POP PUSH2 0x299 JUMP JUMPDEST CALLVALUE DUP1 ISZERO PUSH2 0x11D JUMPI PUSH1 0x0 DUP1 REVERT JUMPDEST POP PUSH2 0x59 PUSH1 0x4 DUP1 CALLDATASIZE SUB PUSH1 0x40 DUP2 LT ISZERO PUSH2 0x134 JUMPI PUSH1 0x0 DUP1 REVERT JUMPDEST PUSH8 0xFFFFFFFFFFFFFFFF DUP3 CALLDATALOAD AND SWAP2 SWAP1 DUP2 ADD SWAP1 PUSH1 0x40 DUP2 ADD PUSH1 0x20 DUP3 ADD CALLDATALOAD PUSH5 0x100000000 DUP2 GT ISZERO PUSH2 0x160 JUMPI PUSH1 0x0 DUP1 REVERT JUMPDEST DUP3 ADD DUP4 PUSH1 0x20 DUP3 ADD GT ISZERO PUSH2 0x172 JUMPI PUSH1 0x0 DUP1 REVERT JUMPDEST DUP1 CALLDATALOAD SWAP1 PUSH1 0x20 ADD SWAP2 DUP5 PUSH1 0x1 DUP4 MUL DUP5 ADD GT PUSH5 0x100000000 DUP4 GT OR ISZERO PUSH2 0x194 JUMPI PUSH1 0x0 DUP1 REVERT JUMPDEST POP SWAP1 SWAP3 POP SWAP1 POP PUSH2 0x29D JUMP JUMPDEST JUMP JUMPDEST DUP4 PUSH2 0xFFFF AND DUP3 PUSH2 0xFFFF AND LT ISZERO PUSH2 0x1ED JUMPI PUSH1 0x40 DUP1 MLOAD PUSH3 0x461BCD PUSH1 0xE5 SHL DUP2 MSTORE PUSH1 0x20 PUSH1 0x4 DUP3 ADD MSTORE PUSH1 0xC PUSH1 0x24 DUP3 ADD MSTORE PUSH12 0x24B73B30B6321030B932B097 PUSH1 0xA1 SHL PUSH1 0x44 DUP3 ADD MSTORE SWAP1 MLOAD SWAP1 DUP2 SWAP1 SUB PUSH1 0x64 ADD SWAP1 REVERT JUMPDEST DUP3 PUSH2 0xFFFF AND DUP2 PUSH2 0xFFFF AND LT ISZERO PUSH2 0x239 JUMPI PUSH1 0x40 DUP1 MLOAD PUSH3 0x461BCD PUSH1 0xE5 SHL DUP2 MSTORE PUSH1 0x20 PUSH1 0x4 DUP3 ADD MSTORE PUSH1 0xC PUSH1 0x24 DUP3 ADD MSTORE PUSH12 0x24B73B30B6321030B932B097 PUSH1 0xA1 SHL PUSH1 0x44 DUP3 ADD MSTORE SWAP1 MLOAD SWAP1 DUP2 SWAP1 SUB PUSH1 0x64 ADD SWAP1 REVERT JUMPDEST PUSH1 0x0 SLOAD DUP4 DUP3 SUB DUP6 DUP5 SUB MUL PUSH2 0xFFFF AND MUL CALLVALUE GT PUSH2 0x293 JUMPI PUSH1 0x40 DUP1 MLOAD PUSH3 0x461BCD PUSH1 0xE5 SHL DUP2 MSTORE PUSH1 0x20 PUSH1 0x4 DUP3 ADD MSTORE PUSH1 0x15 PUSH1 0x24 DUP3 ADD MSTORE PUSH21 0x24B739BAB33334B1B4B2B73A103232B837B9B4BA17 PUSH1 0x59 SHL PUSH1 0x44 DUP3 ADD MSTORE SWAP1 MLOAD SWAP1 DUP2 SWAP1 SUB PUSH1 0x64 ADD SWAP1 REVERT JUMPDEST POP POP POP POP JUMP JUMPDEST POP POP JUMP JUMPDEST PUSH32 0x9733CC983ACBB5BC34F1BEB2F9A6FCF17855246773099D1F1A8FD9A7B69C0312 DUP4 DUP4 DUP4 PUSH1 0x40 MLOAD DUP1 DUP5 PUSH8 0xFFFFFFFFFFFFFFFF AND DUP2 MSTORE PUSH1 0x20 ADD DUP1 PUSH1 0x20 ADD DUP3 DUP2 SUB DUP3 MSTORE DUP5 DUP5 DUP3 DUP2 DUP2 MSTORE PUSH1 0x20 ADD SWAP3 POP DUP1 DUP3 DUP5 CALLDATACOPY PUSH1 0x0 DUP4 DUP3 ADD MSTORE PUSH1 0x40 MLOAD PUSH1 0x1F SWAP1 SWAP2 ADD PUSH1 0x1F NOT AND SWAP1 SWAP3 ADD DUP3 SWAP1 SUB SWAP7 POP SWAP1 SWAP5 POP POP POP POP POP LOG1 POP POP POP JUMP INVALID LOG2 PUSH5 0x6970667358 0x22 SLT KECCAK256 PUSH4 0xB1487ED SHL SWAP9 LOG4 0x4D 0xC4 0xD3 0xDD 0xC4 0xBA 0xED SWAP13 0x1F SWAP13 0xD5 0x25 EQ 0xF PUSH13 0xE8406E0B0CE001DC1064736F6C PUSH4 0x43000706 STOP CALLER "
				},
				"gasEstimates": {
					"creation": {
						"codeDepositCost": "168400",
						"executionCost": "infinite",
						"totalCost": "infinite"
					},
					"external": {
						"changePixels(uint64,bytes)": "infinite",
						"claim(bytes)": "380",
						"lock(uint16,uint16,uint16,uint16)": "1270",
						"withdrawDeposit()": "122"
					}
				},
				"methodIdentifiers": {
					"changePixels(uint64,bytes)": "cdd8e3e5",
					"claim(bytes)": "c63ff8dd",
					"lock(uint16,uint16,uint16,uint16)": "b015852e",
					"withdrawDeposit()": "117df088"
				}
			},
			"storageLayout": {
				"storage": [
					{
						"astId": 70,
						"contract": "contracts/placePixel.sol:placePixel",
						"label": "costPerPixel",
						"offset": 0,
						"slot": "0",
						"type": "t_uint256"
					}
				],
				"types": {
					"t_uint256": {
						"encoding": "inplace",
						"label": "uint256",
						"numberOfBytes": "32"
					}
				}
			},
			"userdoc": {
				"kind": "user",
				"methods": {},
				"version": 1
			}
		}
	}
}