{
	"data": {
		"bytecode": {
			"linkReferences": {},
			"object": "6080604052600180547799489d7bb33539f3d1a401741e56e8f02b9ae0cf000151806001600160c01b0319909116179055600280546001600160a01b03191673cb71745d032e16ec838430731282ff6c10d29dea17905534801561006257600080fd5b506040516108a23803806108a283398101604081905261008191610089565b6000556100a2565b60006020828403121561009b57600080fd5b5051919050565b6107f1806100b16000396000f3fe6080604052600436106100555760003560e01c8063585dcc0a1461005a5780636cc6cde114610083578063b015852e146100c3578063b3d7a2d2146100d6578063be3ab83c146100f7578063f3f480d914610117575b600080fd5b34801561006657600080fd5b5061007060005481565b6040519081526020015b60405180910390f35b34801561008f57600080fd5b506001546100ab9064010000000090046001600160a01b031681565b6040516001600160a01b03909116815260200161007a565b6100706100d13660046104f8565b610149565b3480156100e257600080fd5b506100f56100f1366004610486565b5050565b005b34801561010357600080fd5b506002546100ab906001600160a01b031681565b34801561012357600080fd5b506001546101349063ffffffff1681565b60405163ffffffff909116815260200161007a565b6000805461015785846106ca565b61016290600161062f565b61016c87866106ca565b61017790600161062f565b6101819190610681565b61ffff1661018f91906106ab565b3410156101da5760405162461bcd60e51b815260206004820152601560248201527424b739bab33334b1b4b2b73a103232b837b9b4ba1760591b604482015260640160405180910390fd5b60006101e98661ffff16610350565b6101f68661ffff16610350565b6102038661ffff16610350565b6102108661ffff16610350565b604051602001610223949392919061054c565b60408051601f198184030181529082905260025460015463762c38fd60e01b84529193506000926001600160a01b039182169263762c38fd926102849260149288926401000000008204169163ffffffff90911690889081906004016105c7565b602060405180830381600087803b15801561029e57600080fd5b505af11580156102b2573d6000803e3d6000fd5b505050506040513d601f19601f820116820180604052508101906102d6919061046d565b6002546040516377f325df60e01b81526004810183905260016024820152600060448201529192506001600160a01b0316906377f325df9034906064016000604051808303818588803b15801561032c57600080fd5b505af1158015610340573d6000803e3d6000fd5b50939a9950505050505050505050565b6060816103745750506040805180820190915260018152600360fc1b602082015290565b8160005b811561039e578061038881610734565b91506103979050600a8361066d565b9150610378565b60008167ffffffffffffffff8111156103b9576103b96107a5565b6040519080825280601f01601f1916602001820160405280156103e3576020820181803683370190505b5090505b841561044e576103f86001836106ed565b9150610405600a8661074f565b610410906030610655565b60f81b8183815181106104255761042561078f565b60200101906001600160f81b031916908160001a905350610447600a8661066d565b94506103e7565b949350505050565b803561ffff8116811461046857600080fd5b919050565b60006020828403121561047f57600080fd5b5051919050565b6000806020838503121561049957600080fd5b823567ffffffffffffffff808211156104b157600080fd5b818501915085601f8301126104c557600080fd5b8135818111156104d457600080fd5b8660208285010111156104e657600080fd5b60209290920196919550909350505050565b6000806000806080858703121561050e57600080fd5b61051785610456565b935061052560208601610456565b925061053360408601610456565b915061054160608601610456565b905092959194509250565b6000855161055e818460208a01610704565b62e2909f60e81b9083018181528651909190610581816003850160208b01610704565b60039201918201819052855161059e816006850160208a01610704565b600692019182015283516105b9816009840160208801610704565b016009019695505050505050565b86815260c06020820152600086518060c08401526105ec8160e0850160208b01610704565b6001600160a01b039690961660408301525063ffffffff938416606082015291909216608082015260a081019190915260e0601f909201601f1916010192915050565b600061ffff80831681851680830382111561064c5761064c610763565b01949350505050565b6000821982111561066857610668610763565b500190565b60008261067c5761067c610779565b500490565b600061ffff808316818516818304811182151516156106a2576106a2610763565b02949350505050565b60008160001904831182151516156106c5576106c5610763565b500290565b600061ffff838116908316818110156106e5576106e5610763565b039392505050565b6000828210156106ff576106ff610763565b500390565b60005b8381101561071f578181015183820152602001610707565b8381111561072e576000848401525b50505050565b600060001982141561074857610748610763565b5060010190565b60008261075e5761075e610779565b500690565b634e487b7160e01b600052601160045260246000fd5b634e487b7160e01b600052601260045260246000fd5b634e487b7160e01b600052603260045260246000fd5b634e487b7160e01b600052604160045260246000fdfea26469706673582212205209fb77941de64dc961a7d8ebd96d913415871fe97214513ce7f98546b3af3f64736f6c63430008070033",
			"opcodes": "PUSH1 0x80 PUSH1 0x40 MSTORE PUSH1 0x1 DUP1 SLOAD PUSH24 0x99489D7BB33539F3D1A401741E56E8F02B9AE0CF00015180 PUSH1 0x1 PUSH1 0x1 PUSH1 0xC0 SHL SUB NOT SWAP1 SWAP2 AND OR SWAP1 SSTORE PUSH1 0x2 DUP1 SLOAD PUSH1 0x1 PUSH1 0x1 PUSH1 0xA0 SHL SUB NOT AND PUSH20 0xCB71745D032E16EC838430731282FF6C10D29DEA OR SWAP1 SSTORE CALLVALUE DUP1 ISZERO PUSH2 0x62 JUMPI PUSH1 0x0 DUP1 REVERT JUMPDEST POP PUSH1 0x40 MLOAD PUSH2 0x8A2 CODESIZE SUB DUP1 PUSH2 0x8A2 DUP4 CODECOPY DUP2 ADD PUSH1 0x40 DUP2 SWAP1 MSTORE PUSH2 0x81 SWAP2 PUSH2 0x89 JUMP JUMPDEST PUSH1 0x0 SSTORE PUSH2 0xA2 JUMP JUMPDEST PUSH1 0x0 PUSH1 0x20 DUP3 DUP5 SUB SLT ISZERO PUSH2 0x9B JUMPI PUSH1 0x0 DUP1 REVERT JUMPDEST POP MLOAD SWAP2 SWAP1 POP JUMP JUMPDEST PUSH2 0x7F1 DUP1 PUSH2 0xB1 PUSH1 0x0 CODECOPY PUSH1 0x0 RETURN INVALID PUSH1 0x80 PUSH1 0x40 MSTORE PUSH1 0x4 CALLDATASIZE LT PUSH2 0x55 JUMPI PUSH1 0x0 CALLDATALOAD PUSH1 0xE0 SHR DUP1 PUSH4 0x585DCC0A EQ PUSH2 0x5A JUMPI DUP1 PUSH4 0x6CC6CDE1 EQ PUSH2 0x83 JUMPI DUP1 PUSH4 0xB015852E EQ PUSH2 0xC3 JUMPI DUP1 PUSH4 0xB3D7A2D2 EQ PUSH2 0xD6 JUMPI DUP1 PUSH4 0xBE3AB83C EQ PUSH2 0xF7 JUMPI DUP1 PUSH4 0xF3F480D9 EQ PUSH2 0x117 JUMPI JUMPDEST PUSH1 0x0 DUP1 REVERT JUMPDEST CALLVALUE DUP1 ISZERO PUSH2 0x66 JUMPI PUSH1 0x0 DUP1 REVERT JUMPDEST POP PUSH2 0x70 PUSH1 0x0 SLOAD DUP2 JUMP JUMPDEST PUSH1 0x40 MLOAD SWAP1 DUP2 MSTORE PUSH1 0x20 ADD JUMPDEST PUSH1 0x40 MLOAD DUP1 SWAP2 SUB SWAP1 RETURN JUMPDEST CALLVALUE DUP1 ISZERO PUSH2 0x8F JUMPI PUSH1 0x0 DUP1 REVERT JUMPDEST POP PUSH1 0x1 SLOAD PUSH2 0xAB SWAP1 PUSH5 0x100000000 SWAP1 DIV PUSH1 0x1 PUSH1 0x1 PUSH1 0xA0 SHL SUB AND DUP2 JUMP JUMPDEST PUSH1 0x40 MLOAD PUSH1 0x1 PUSH1 0x1 PUSH1 0xA0 SHL SUB SWAP1 SWAP2 AND DUP2 MSTORE PUSH1 0x20 ADD PUSH2 0x7A JUMP JUMPDEST PUSH2 0x70 PUSH2 0xD1 CALLDATASIZE PUSH1 0x4 PUSH2 0x4F8 JUMP JUMPDEST PUSH2 0x149 JUMP JUMPDEST CALLVALUE DUP1 ISZERO PUSH2 0xE2 JUMPI PUSH1 0x0 DUP1 REVERT JUMPDEST POP PUSH2 0xF5 PUSH2 0xF1 CALLDATASIZE PUSH1 0x4 PUSH2 0x486 JUMP JUMPDEST POP POP JUMP JUMPDEST STOP JUMPDEST CALLVALUE DUP1 ISZERO PUSH2 0x103 JUMPI PUSH1 0x0 DUP1 REVERT JUMPDEST POP PUSH1 0x2 SLOAD PUSH2 0xAB SWAP1 PUSH1 0x1 PUSH1 0x1 PUSH1 0xA0 SHL SUB AND DUP2 JUMP JUMPDEST CALLVALUE DUP1 ISZERO PUSH2 0x123 JUMPI PUSH1 0x0 DUP1 REVERT JUMPDEST POP PUSH1 0x1 SLOAD PUSH2 0x134 SWAP1 PUSH4 0xFFFFFFFF AND DUP2 JUMP JUMPDEST PUSH1 0x40 MLOAD PUSH4 0xFFFFFFFF SWAP1 SWAP2 AND DUP2 MSTORE PUSH1 0x20 ADD PUSH2 0x7A JUMP JUMPDEST PUSH1 0x0 DUP1 SLOAD PUSH2 0x157 DUP6 DUP5 PUSH2 0x6CA JUMP JUMPDEST PUSH2 0x162 SWAP1 PUSH1 0x1 PUSH2 0x62F JUMP JUMPDEST PUSH2 0x16C DUP8 DUP7 PUSH2 0x6CA JUMP JUMPDEST PUSH2 0x177 SWAP1 PUSH1 0x1 PUSH2 0x62F JUMP JUMPDEST PUSH2 0x181 SWAP2 SWAP1 PUSH2 0x681 JUMP JUMPDEST PUSH2 0xFFFF AND PUSH2 0x18F SWAP2 SWAP1 PUSH2 0x6AB JUMP JUMPDEST CALLVALUE LT ISZERO PUSH2 0x1DA JUMPI PUSH1 0x40 MLOAD PUSH3 0x461BCD PUSH1 0xE5 SHL DUP2 MSTORE PUSH1 0x20 PUSH1 0x4 DUP3 ADD MSTORE PUSH1 0x15 PUSH1 0x24 DUP3 ADD MSTORE PUSH21 0x24B739BAB33334B1B4B2B73A103232B837B9B4BA17 PUSH1 0x59 SHL PUSH1 0x44 DUP3 ADD MSTORE PUSH1 0x64 ADD PUSH1 0x40 MLOAD DUP1 SWAP2 SUB SWAP1 REVERT JUMPDEST PUSH1 0x0 PUSH2 0x1E9 DUP7 PUSH2 0xFFFF AND PUSH2 0x350 JUMP JUMPDEST PUSH2 0x1F6 DUP7 PUSH2 0xFFFF AND PUSH2 0x350 JUMP JUMPDEST PUSH2 0x203 DUP7 PUSH2 0xFFFF AND PUSH2 0x350 JUMP JUMPDEST PUSH2 0x210 DUP7 PUSH2 0xFFFF AND PUSH2 0x350 JUMP JUMPDEST PUSH1 0x40 MLOAD PUSH1 0x20 ADD PUSH2 0x223 SWAP5 SWAP4 SWAP3 SWAP2 SWAP1 PUSH2 0x54C JUMP JUMPDEST PUSH1 0x40 DUP1 MLOAD PUSH1 0x1F NOT DUP2 DUP5 SUB ADD DUP2 MSTORE SWAP1 DUP3 SWAP1 MSTORE PUSH1 0x2 SLOAD PUSH1 0x1 SLOAD PUSH4 0x762C38FD PUSH1 0xE0 SHL DUP5 MSTORE SWAP2 SWAP4 POP PUSH1 0x0 SWAP3 PUSH1 0x1 PUSH1 0x1 PUSH1 0xA0 SHL SUB SWAP2 DUP3 AND SWAP3 PUSH4 0x762C38FD SWAP3 PUSH2 0x284 SWAP3 PUSH1 0x14 SWAP3 DUP9 SWAP3 PUSH5 0x100000000 DUP3 DIV AND SWAP2 PUSH4 0xFFFFFFFF SWAP1 SWAP2 AND SWAP1 DUP9 SWAP1 DUP2 SWAP1 PUSH1 0x4 ADD PUSH2 0x5C7 JUMP JUMPDEST PUSH1 0x20 PUSH1 0x40 MLOAD DUP1 DUP4 SUB DUP2 PUSH1 0x0 DUP8 DUP1 EXTCODESIZE ISZERO DUP1 ISZERO PUSH2 0x29E JUMPI PUSH1 0x0 DUP1 REVERT JUMPDEST POP GAS CALL ISZERO DUP1 ISZERO PUSH2 0x2B2 JUMPI RETURNDATASIZE PUSH1 0x0 DUP1 RETURNDATACOPY RETURNDATASIZE PUSH1 0x0 REVERT JUMPDEST POP POP POP POP PUSH1 0x40 MLOAD RETURNDATASIZE PUSH1 0x1F NOT PUSH1 0x1F DUP3 ADD AND DUP3 ADD DUP1 PUSH1 0x40 MSTORE POP DUP2 ADD SWAP1 PUSH2 0x2D6 SWAP2 SWAP1 PUSH2 0x46D JUMP JUMPDEST PUSH1 0x2 SLOAD PUSH1 0x40 MLOAD PUSH4 0x77F325DF PUSH1 0xE0 SHL DUP2 MSTORE PUSH1 0x4 DUP2 ADD DUP4 SWAP1 MSTORE PUSH1 0x1 PUSH1 0x24 DUP3 ADD MSTORE PUSH1 0x0 PUSH1 0x44 DUP3 ADD MSTORE SWAP2 SWAP3 POP PUSH1 0x1 PUSH1 0x1 PUSH1 0xA0 SHL SUB AND SWAP1 PUSH4 0x77F325DF SWAP1 CALLVALUE SWAP1 PUSH1 0x64 ADD PUSH1 0x0 PUSH1 0x40 MLOAD DUP1 DUP4 SUB DUP2 DUP6 DUP9 DUP1 EXTCODESIZE ISZERO DUP1 ISZERO PUSH2 0x32C JUMPI PUSH1 0x0 DUP1 REVERT JUMPDEST POP GAS CALL ISZERO DUP1 ISZERO PUSH2 0x340 JUMPI RETURNDATASIZE PUSH1 0x0 DUP1 RETURNDATACOPY RETURNDATASIZE PUSH1 0x0 REVERT JUMPDEST POP SWAP4 SWAP11 SWAP10 POP POP POP POP POP POP POP POP POP POP JUMP JUMPDEST PUSH1 0x60 DUP2 PUSH2 0x374 JUMPI POP POP PUSH1 0x40 DUP1 MLOAD DUP1 DUP3 ADD SWAP1 SWAP2 MSTORE PUSH1 0x1 DUP2 MSTORE PUSH1 0x3 PUSH1 0xFC SHL PUSH1 0x20 DUP3 ADD MSTORE SWAP1 JUMP JUMPDEST DUP2 PUSH1 0x0 JUMPDEST DUP2 ISZERO PUSH2 0x39E JUMPI DUP1 PUSH2 0x388 DUP2 PUSH2 0x734 JUMP JUMPDEST SWAP2 POP PUSH2 0x397 SWAP1 POP PUSH1 0xA DUP4 PUSH2 0x66D JUMP JUMPDEST SWAP2 POP PUSH2 0x378 JUMP JUMPDEST PUSH1 0x0 DUP2 PUSH8 0xFFFFFFFFFFFFFFFF DUP2 GT ISZERO PUSH2 0x3B9 JUMPI PUSH2 0x3B9 PUSH2 0x7A5 JUMP JUMPDEST PUSH1 0x40 MLOAD SWAP1 DUP1 DUP3 MSTORE DUP1 PUSH1 0x1F ADD PUSH1 0x1F NOT AND PUSH1 0x20 ADD DUP3 ADD PUSH1 0x40 MSTORE DUP1 ISZERO PUSH2 0x3E3 JUMPI PUSH1 0x20 DUP3 ADD DUP2 DUP1 CALLDATASIZE DUP4 CALLDATACOPY ADD SWAP1 POP JUMPDEST POP SWAP1 POP JUMPDEST DUP5 ISZERO PUSH2 0x44E JUMPI PUSH2 0x3F8 PUSH1 0x1 DUP4 PUSH2 0x6ED JUMP JUMPDEST SWAP2 POP PUSH2 0x405 PUSH1 0xA DUP7 PUSH2 0x74F JUMP JUMPDEST PUSH2 0x410 SWAP1 PUSH1 0x30 PUSH2 0x655 JUMP JUMPDEST PUSH1 0xF8 SHL DUP2 DUP4 DUP2 MLOAD DUP2 LT PUSH2 0x425 JUMPI PUSH2 0x425 PUSH2 0x78F JUMP JUMPDEST PUSH1 0x20 ADD ADD SWAP1 PUSH1 0x1 PUSH1 0x1 PUSH1 0xF8 SHL SUB NOT AND SWAP1 DUP2 PUSH1 0x0 BYTE SWAP1 MSTORE8 POP PUSH2 0x447 PUSH1 0xA DUP7 PUSH2 0x66D JUMP JUMPDEST SWAP5 POP PUSH2 0x3E7 JUMP JUMPDEST SWAP5 SWAP4 POP POP POP POP JUMP JUMPDEST DUP1 CALLDATALOAD PUSH2 0xFFFF DUP2 AND DUP2 EQ PUSH2 0x468 JUMPI PUSH1 0x0 DUP1 REVERT JUMPDEST SWAP2 SWAP1 POP JUMP JUMPDEST PUSH1 0x0 PUSH1 0x20 DUP3 DUP5 SUB SLT ISZERO PUSH2 0x47F JUMPI PUSH1 0x0 DUP1 REVERT JUMPDEST POP MLOAD SWAP2 SWAP1 POP JUMP JUMPDEST PUSH1 0x0 DUP1 PUSH1 0x20 DUP4 DUP6 SUB SLT ISZERO PUSH2 0x499 JUMPI PUSH1 0x0 DUP1 REVERT JUMPDEST DUP3 CALLDATALOAD PUSH8 0xFFFFFFFFFFFFFFFF DUP1 DUP3 GT ISZERO PUSH2 0x4B1 JUMPI PUSH1 0x0 DUP1 REVERT JUMPDEST DUP2 DUP6 ADD SWAP2 POP DUP6 PUSH1 0x1F DUP4 ADD SLT PUSH2 0x4C5 JUMPI PUSH1 0x0 DUP1 REVERT JUMPDEST DUP2 CALLDATALOAD DUP2 DUP2 GT ISZERO PUSH2 0x4D4 JUMPI PUSH1 0x0 DUP1 REVERT JUMPDEST DUP7 PUSH1 0x20 DUP3 DUP6 ADD ADD GT ISZERO PUSH2 0x4E6 JUMPI PUSH1 0x0 DUP1 REVERT JUMPDEST PUSH1 0x20 SWAP3 SWAP1 SWAP3 ADD SWAP7 SWAP2 SWAP6 POP SWAP1 SWAP4 POP POP POP POP JUMP JUMPDEST PUSH1 0x0 DUP1 PUSH1 0x0 DUP1 PUSH1 0x80 DUP6 DUP8 SUB SLT ISZERO PUSH2 0x50E JUMPI PUSH1 0x0 DUP1 REVERT JUMPDEST PUSH2 0x517 DUP6 PUSH2 0x456 JUMP JUMPDEST SWAP4 POP PUSH2 0x525 PUSH1 0x20 DUP7 ADD PUSH2 0x456 JUMP JUMPDEST SWAP3 POP PUSH2 0x533 PUSH1 0x40 DUP7 ADD PUSH2 0x456 JUMP JUMPDEST SWAP2 POP PUSH2 0x541 PUSH1 0x60 DUP7 ADD PUSH2 0x456 JUMP JUMPDEST SWAP1 POP SWAP3 SWAP6 SWAP2 SWAP5 POP SWAP3 POP JUMP JUMPDEST PUSH1 0x0 DUP6 MLOAD PUSH2 0x55E DUP2 DUP5 PUSH1 0x20 DUP11 ADD PUSH2 0x704 JUMP JUMPDEST PUSH3 0xE2909F PUSH1 0xE8 SHL SWAP1 DUP4 ADD DUP2 DUP2 MSTORE DUP7 MLOAD SWAP1 SWAP2 SWAP1 PUSH2 0x581 DUP2 PUSH1 0x3 DUP6 ADD PUSH1 0x20 DUP12 ADD PUSH2 0x704 JUMP JUMPDEST PUSH1 0x3 SWAP3 ADD SWAP2 DUP3 ADD DUP2 SWAP1 MSTORE DUP6 MLOAD PUSH2 0x59E DUP2 PUSH1 0x6 DUP6 ADD PUSH1 0x20 DUP11 ADD PUSH2 0x704 JUMP JUMPDEST PUSH1 0x6 SWAP3 ADD SWAP2 DUP3 ADD MSTORE DUP4 MLOAD PUSH2 0x5B9 DUP2 PUSH1 0x9 DUP5 ADD PUSH1 0x20 DUP9 ADD PUSH2 0x704 JUMP JUMPDEST ADD PUSH1 0x9 ADD SWAP7 SWAP6 POP POP POP POP POP POP JUMP JUMPDEST DUP7 DUP2 MSTORE PUSH1 0xC0 PUSH1 0x20 DUP3 ADD MSTORE PUSH1 0x0 DUP7 MLOAD DUP1 PUSH1 0xC0 DUP5 ADD MSTORE PUSH2 0x5EC DUP2 PUSH1 0xE0 DUP6 ADD PUSH1 0x20 DUP12 ADD PUSH2 0x704 JUMP JUMPDEST PUSH1 0x1 PUSH1 0x1 PUSH1 0xA0 SHL SUB SWAP7 SWAP1 SWAP7 AND PUSH1 0x40 DUP4 ADD MSTORE POP PUSH4 0xFFFFFFFF SWAP4 DUP5 AND PUSH1 0x60 DUP3 ADD MSTORE SWAP2 SWAP1 SWAP3 AND PUSH1 0x80 DUP3 ADD MSTORE PUSH1 0xA0 DUP2 ADD SWAP2 SWAP1 SWAP2 MSTORE PUSH1 0xE0 PUSH1 0x1F SWAP1 SWAP3 ADD PUSH1 0x1F NOT AND ADD ADD SWAP3 SWAP2 POP POP JUMP JUMPDEST PUSH1 0x0 PUSH2 0xFFFF DUP1 DUP4 AND DUP2 DUP6 AND DUP1 DUP4 SUB DUP3 GT ISZERO PUSH2 0x64C JUMPI PUSH2 0x64C PUSH2 0x763 JUMP JUMPDEST ADD SWAP5 SWAP4 POP POP POP POP JUMP JUMPDEST PUSH1 0x0 DUP3 NOT DUP3 GT ISZERO PUSH2 0x668 JUMPI PUSH2 0x668 PUSH2 0x763 JUMP JUMPDEST POP ADD SWAP1 JUMP JUMPDEST PUSH1 0x0 DUP3 PUSH2 0x67C JUMPI PUSH2 0x67C PUSH2 0x779 JUMP JUMPDEST POP DIV SWAP1 JUMP JUMPDEST PUSH1 0x0 PUSH2 0xFFFF DUP1 DUP4 AND DUP2 DUP6 AND DUP2 DUP4 DIV DUP2 GT DUP3 ISZERO ISZERO AND ISZERO PUSH2 0x6A2 JUMPI PUSH2 0x6A2 PUSH2 0x763 JUMP JUMPDEST MUL SWAP5 SWAP4 POP POP POP POP JUMP JUMPDEST PUSH1 0x0 DUP2 PUSH1 0x0 NOT DIV DUP4 GT DUP3 ISZERO ISZERO AND ISZERO PUSH2 0x6C5 JUMPI PUSH2 0x6C5 PUSH2 0x763 JUMP JUMPDEST POP MUL SWAP1 JUMP JUMPDEST PUSH1 0x0 PUSH2 0xFFFF DUP4 DUP2 AND SWAP1 DUP4 AND DUP2 DUP2 LT ISZERO PUSH2 0x6E5 JUMPI PUSH2 0x6E5 PUSH2 0x763 JUMP JUMPDEST SUB SWAP4 SWAP3 POP POP POP JUMP JUMPDEST PUSH1 0x0 DUP3 DUP3 LT ISZERO PUSH2 0x6FF JUMPI PUSH2 0x6FF PUSH2 0x763 JUMP JUMPDEST POP SUB SWAP1 JUMP JUMPDEST PUSH1 0x0 JUMPDEST DUP4 DUP2 LT ISZERO PUSH2 0x71F JUMPI DUP2 DUP2 ADD MLOAD DUP4 DUP3 ADD MSTORE PUSH1 0x20 ADD PUSH2 0x707 JUMP JUMPDEST DUP4 DUP2 GT ISZERO PUSH2 0x72E JUMPI PUSH1 0x0 DUP5 DUP5 ADD MSTORE JUMPDEST POP POP POP POP JUMP JUMPDEST PUSH1 0x0 PUSH1 0x0 NOT DUP3 EQ ISZERO PUSH2 0x748 JUMPI PUSH2 0x748 PUSH2 0x763 JUMP JUMPDEST POP PUSH1 0x1 ADD SWAP1 JUMP JUMPDEST PUSH1 0x0 DUP3 PUSH2 0x75E JUMPI PUSH2 0x75E PUSH2 0x779 JUMP JUMPDEST POP MOD SWAP1 JUMP JUMPDEST PUSH4 0x4E487B71 PUSH1 0xE0 SHL PUSH1 0x0 MSTORE PUSH1 0x11 PUSH1 0x4 MSTORE PUSH1 0x24 PUSH1 0x0 REVERT JUMPDEST PUSH4 0x4E487B71 PUSH1 0xE0 SHL PUSH1 0x0 MSTORE PUSH1 0x12 PUSH1 0x4 MSTORE PUSH1 0x24 PUSH1 0x0 REVERT JUMPDEST PUSH4 0x4E487B71 PUSH1 0xE0 SHL PUSH1 0x0 MSTORE PUSH1 0x32 PUSH1 0x4 MSTORE PUSH1 0x24 PUSH1 0x0 REVERT JUMPDEST PUSH4 0x4E487B71 PUSH1 0xE0 SHL PUSH1 0x0 MSTORE PUSH1 0x41 PUSH1 0x4 MSTORE PUSH1 0x24 PUSH1 0x0 REVERT INVALID LOG2 PUSH5 0x6970667358 0x22 SLT KECCAK256 MSTORE MULMOD 0xFB PUSH24 0x941DE64DC961A7D8EBD96D913415871FE97214513CE7F985 CHAINID 0xB3 0xAF EXTCODEHASH PUSH5 0x736F6C6343 STOP ADDMOD SMOD STOP CALLER "
		},
		"gasEstimates": {
			"creation": {
				"codeDepositCost": "406600",
				"executionCost": "infinite",
				"totalCost": "infinite"
			},
			"external": {
				"arbitrator()": "2348",
				"challengePeriod()": "2401",
				"changePixels(bytes)": "435",
				"costPerPixel()": "2262",
				"lock(uint16,uint16,uint16,uint16)": "infinite",
				"reality()": "2403"
			}
		},
		"methodIdentifiers": {
			"arbitrator()": "6cc6cde1",
			"challengePeriod()": "f3f480d9",
			"changePixels(bytes)": "b3d7a2d2",
			"costPerPixel()": "585dcc0a",
			"lock(uint16,uint16,uint16,uint16)": "b015852e",
			"reality()": "be3ab83c"
		}
	},
	"abi": [
		{
			"inputs": [
				{
					"internalType": "uint256",
					"name": "_costPerPixel",
					"type": "uint256"
				}
			],
			"stateMutability": "nonpayable",
			"type": "constructor"
		},
		{
			"inputs": [],
			"name": "arbitrator",
			"outputs": [
				{
					"internalType": "address",
					"name": "",
					"type": "address"
				}
			],
			"stateMutability": "view",
			"type": "function"
		},
		{
			"inputs": [],
			"name": "challengePeriod",
			"outputs": [
				{
					"internalType": "uint32",
					"name": "",
					"type": "uint32"
				}
			],
			"stateMutability": "view",
			"type": "function"
		},
		{
			"inputs": [
				{
					"internalType": "bytes",
					"name": "_pixels",
					"type": "bytes"
				}
			],
			"name": "changePixels",
			"outputs": [],
			"stateMutability": "nonpayable",
			"type": "function"
		},
		{
			"inputs": [],
			"name": "costPerPixel",
			"outputs": [
				{
					"internalType": "uint256",
					"name": "",
					"type": "uint256"
				}
			],
			"stateMutability": "view",
			"type": "function"
		},
		{
			"inputs": [
				{
					"internalType": "uint16",
					"name": "_x",
					"type": "uint16"
				},
				{
					"internalType": "uint16",
					"name": "_y",
					"type": "uint16"
				},
				{
					"internalType": "uint16",
					"name": "_xx",
					"type": "uint16"
				},
				{
					"internalType": "uint16",
					"name": "_yy",
					"type": "uint16"
				}
			],
			"name": "lock",
			"outputs": [
				{
					"internalType": "bytes32",
					"name": "qID",
					"type": "bytes32"
				}
			],
			"stateMutability": "payable",
			"type": "function"
		},
		{
			"inputs": [],
			"name": "reality",
			"outputs": [
				{
					"internalType": "contract RealityETH_v3_0",
					"name": "",
					"type": "address"
				}
			],
			"stateMutability": "view",
			"type": "function"
		}
	]
}